:020000040800F2
:100000006015002049040008A504000857150008E1
:10001000A5040008A5040008A504000800000000CD
:10002000000000000000000000000000A50400081F
:10003000A504000800000000A50400082915000818
:10004000A5040008A5040008A5040008A5040008EC
:10005000A5040008A5040008A5040008A5040008DC
:10006000A5040008A5040008A5040008A5040008CC
:10007000A5040008A5040008A5040008A5040008BC
:10008000A5040008A5040008A5040008A5040008AC
:10009000A5040008A5040008A5040008A50400089C
:1000A000A5040008A5040008A5040008A50400088C
:1000B000A5040008A5040008A5040008A50400087C
:1000C000A5040008A5040008A5040008A50400086C
:1000D000A5040008A5040008A5040008A50400085C
:1000E000A5040008A5040008A504000800000000FD
:1000F0000000000000000000000000000000000000
:1001000000000000000000005FF808F180B590B02A
:1001100000AFF860B9601346FB800120012101F0B7
:100120000FF80820012101F029F80120012101F038
:1001300025F84FF48020012101F03EF800F0AAF8E4
:100140004FF4706001F028FB2B4AFB6813602A4BC8
:100150000C225A81284B00229A81274B00221A81B7
:10016000254B0022DA80244B00229A802348224922
:1001700001F040F8224801F0F9F9224B3B61BB68DD
:100180007B610023BB61FB88FB6100233B62802312
:100190007B620023BB620023FB6220233B634FF49E
:1001A00040537B630023BB6307F1100314481946D7
:1001B00001F098FA0D2387F83C30012387F83F308F
:1001C000002387F83D30002387F83E3007F13C03D9
:1001D000184601F0FBFA0A48012101F0C1FA07486C
:1001E000012101F0C1F805484021012201F0DCF8AD
:1001F0004037BD4680BD00BF480500200048004094
:10020000300002400448004080B58EB000AF7860F6
:100210000B467B804FF4706001F0BEFA1B4801F082
:10022000A5F91B4BBB607B68FB6000233B617B88AF
:100230007B610023BB618023FB6100233B620023C1
:100240007B622023BB624FF44053FB6200233B637D
:1002500007F108030D48194601F044FA0D2387F809
:100260003430012387F83730002387F835300023F6
:1002700087F8363007F13403184601F0A7FA03482F
:10028000012101F06DFA3837BD4680BD30000240D3
:100290000448004080B500AF0C4B03229A700B4B12
:1002A0000422DA70094B4FF400621A8008480749AB
:1002B00000F0FCF8054B1822DA70044B4FF4806212
:1002C0001A800348014900F0F1F880BD4405002080
:1002D000000C014080B500AF154A154B1B6843F078
:1002E000010313601249124B5A68124B13404B60C2
:1002F0000F4A0F4B1B6823F0847323F48033136081
:100300000B4A0B4B1B6823F480231360084A084BED
:100310005B6823F4FE035360054B4FF41F029A60A1
:1003200000F00CF8044B4FF000629A6080BD00BFF3
:10033000001002400000FFF800ED00E080B500AFC3
:1003400000F002F880BD00BF80B483B000AF00238E
:100350007B6000233B603A4A394B1B6843F480338F
:100360001360374B1B6803F400333B607B68013339
:100370007B603B68002B03D17B68B3F5A06FF0D1A5
:100380002F4B1B6803F40033002B02D001233B608A
:1003900001E000233B603B68012B4BD1294A294BEC
:1003A0001B6843F010031360264A264B1B6823F09A
:1003B00003031360234A234B1B6843F002031360BB
:1003C0001F4A1F4B5B6853601D4A1D4B5B6853609F
:1003D0001B4A1B4B5B6843F480635360184A184BFD
:1003E0005B6823F47C135360154A154B5B6843F438
:1003F000E8135360124A124B1B6843F0807313607A
:1004000000BF0F4B1B6803F00073002BF9D00C4AA0
:100410000B4B5B6823F003035360094A084B5B688E
:1004200043F00203536000BF054B5B6803F00C030D
:10043000082BF9D10C37BD465DF8047B704700BF2F
:10044000001002400020024080B582B000AF104B87
:100450007B60104B3B6007E03B681A1D3A607A688E
:10046000111D796012681A603B680B4A9342F3D3FE
:100470000A480B494FF000028842B8BF40F8042BED
:10048000FADBFFF727FF00F02DF90837BD4680BDE6
:1004900048340008000000200C0500200C05002056
:1004A0005C11002080B400AFFEE700BF80B489B0CB
:1004B00000AF786039600023FB6100233B610023BB
:1004C000BB610023FB6000237B610023BB603B68B2
:1004D000DB7803F00F03FB613B68DB7803F010036C
:1004E000002B05D03B689B781A46FB691343FB61E0
:1004F0003B681B88DBB2002B44D07B681B687B61A8
:100500000023BB6138E0BB69012202FA03F3FB6000
:100510003B681B881A46FB6813403B613A69FB68DD
:100520009A4226D1BB699B00FB60FB680F2202FA4E
:1005300003F3BB60BB68DB437A6913407B61FB68F4
:10054000FA6902FA03F37A6913437B613B68DB784B
:10055000282B05D1BB6901229A407B685A6108E0CB
:100560003B68DB78482B04D1BB6901229A407B6849
:100570001A61BB690133BB61BB69072BC3D97B68B7
:100580007A691A603B681B88FF2B4AD97B685B68D5
:100590007B610023BB613EE0BB6908331A4601233F
:1005A0009340FB603B681B881A46FB6813403B6125
:1005B0003A69FB689A422BD1BB699B00FB60FB68E0
:1005C0000F2202FA03F3BB60BB68DB437A69134076
:1005D0007B61FB68FA6902FA03F37A6913437B6172
:1005E0003B68DB78282B07D1BB6908331A46012307
:1005F00003FA02F27B685A613B68DB78482B07D12B
:10060000BB6908331A46012303FA02F27B681A61B8
:10061000BB690133BB61BB69072BBDD97B687A69B4
:100620005A602437BD465DF8047B704780B485B0BE
:1006300000AF78600B467B800023FB737B689A6871
:100640007B881340002B02D00123FB7301E00023C1
:10065000FB73FB7B18461437BD465DF8047B70477F
:1006600080B400AF034B4FF4E0421A61BD465DF821
:10067000047B7047000C014080B500AF074B14228B
:10068000DA70064B02229A70044B4FF4E0421A8053
:1006900003480249FFF70AFF80BD00BF5C05002048
:1006A000000C014080B483B000AF0346FB71FB79BE
:1006B000002B06D0012B09D1094B4FF480525A610F
:1006C00009E0074B4FF480521A6104E0044B4FF4E9
:1006D00080521A6100BF0C37BD465DF8047B70473D
:1006E000000C0140B0B588B000AF4FF47A7000F054
:1006F000F9FE3F483F494FF47A72FFF707FD01F0DA
:10070000C7F801F0D9F8FFF7B7FFFFF7A9FF01F02D
:10071000DFF8394B00221A6004E0374B1B680133C5
:10072000354A1360344B1B68344A9342F5D906208E
:1007300001F008FA0120502100F036F90C2001F0F8
:1007400001FA00F0E5FE02462D4B1A602D484FF4E9
:100750008071FFF76BFF0346002B1AD000F0D8FE24
:100760000246294B1B68D21A284B1B689A4210D3A9
:1007700000F0CEFE0246244B1A60254B1B7883F016
:100780000103DAB2224B1A70214B1B781846FFF78F
:1007900089FF00F0BDFE02461E4B1B68D31AB3F55D
:1007A000FA7F23D300F0B4FE02461A4B1A601A4CAB
:1007B0003B46184601F06EFA25463C460FCC0FC565
:1007C00094E8070085E80700134B1B7E012B0DD131
:1007D000114B1A78114B1B6810461946104A00F04D
:1007E00049F80B4B1B781846FFF75CFFAEE700BFDC
:1007F00080841E000C0700201C050020C3FD0100A2
:1008000010050020000C01401405002018000020F5
:100810000C05002018050020F006002044000020F0
:100820006005002080B58AB006AFF860B960114657
:100830001A460B46FB711346BB71F879B9793A7EBB
:100840003B7F0090019102920393FB680493BB6885
:10085000059305484FF4C871044A054B00F07EFB30
:100860001037BD4680BD00BF60050020802D000808
:100870003C2E000890B587B002AF0346B9607A609D
:10088000FB733E484FF4967101F02EF8B86801F002
:1008900091FE03469AB23A4B1A80786801F08AFEBC
:1008A00003469AB2374B1A80364B1B883648374975
:1008B0001A4600F07DFB344801F07CFE0346DAB2B4
:1008C000334B1A70334B5B68184601F073FE0346D6
:1008D0009AB22F4B1B789BB213449AB2284B1B88B9
:1008E00013449AB2274B1B8813449BB205339AB228
:1008F000294B1A80284B1A88284B1A80FA7B264BE2
:100900001B881E48264900F053FB1C4801F052FE8C
:1009100003469AB2214B1B8813449AB21F4B1A808C
:10092000164801F0D5F8154801F044FE03469BB285
:100930001248194600F0D8FF164B5C68114B1B8813
:10094000013300937B6801930C481649BA6823462B
:1009500000F02EFB094801F0BBF8104B1B8818462D
:1009600001F042F8054801F025FE03469BB203481A
:10097000194600F0B9FF1437BD4690BDC40B0020E6
:100980002405002026050020F40A00200431000878
:10099000280500202C0000202A0500202C0500201E
:1009A000083100081C31000880B582B000AF034652
:1009B0000A46FB711346BB80194B00221A6004E003
:1009C000174B1B680133164A1360154B1B68154AF9
:1009D0009342F5D9124B00221A6004E0104B1B68B9
:1009E00001330F4A13600E4B1B680E4A9342F5D930
:1009F0000B4B00221A6004E0094B1B680133084AC4
:100A00001360074B1B68074A9342F5D9092001F090
:100A100099F80B2001F096F80837BD4680BD00BF5D
:100A2000200500201B1F010080B483B000AF786058
:100A30000B46FB707B68FA781A70012318460C3756
:100A4000BD465DF8047B704780B485B000AF786028
:100A500039600023FB600AE07B685A1C7A603A68C0
:100A6000511C396012781A70FB680133FB603B68D7
:100A70001B78002BF0D1FB6818461437BD465DF893
:100A8000047B704780B586B000AFF8607A603B6049
:100A90000B46FB7200237B617B68013B7B603B68FC
:100AA000092B10D93B681E4AA2FB0323DB08FA7A04
:100AB000F86811467A68FFF7E5FF78617B69FA68A4
:100AC0001344FB6011E00DE0FB7AF8681946FFF76C
:100AD000ABFFFB680133FB607B6901337B617B68A3
:100AE000013B7B607B68002BEEDC39680C4BA3FB81
:100AF0000123DA0813469B0013445B00CA1AD3B2E1
:100B00003033DBB2F8681946FFF78EFF02467B6987
:100B100013447B617B6918461837BD4680BD00BF12
:100B2000CDCCCCCC90B587B000AFF8607A603B609C
:100B30000B46FB7200237B613B68002B03DA3B68AA
:100B40005B423B6101E03B683B617B68013B7B6052
:100B50003B69092B25D93B68002B0FDA3B69314AE9
:100B6000A2FB0323DB085B421C46FB7AF8681946AC
:100B70007A682346FFF7D6FF78610DE03B69294A82
:100B8000A2FB0323DB081C46FB7AF86819467A6847
:100B90002346FFF7C7FF78617B69FA681344FB605F
:100BA00025E03B68002B02DA7B68013B7B600DE0AF
:100BB000FB7AF8681946FFF737FFFB680133FB60E3
:100BC0007B6901337B617B68013B7B607B68002B29
:100BD000EEDC3B68002B0ADAF8682D21FFF724FFD2
:100BE00002467B6913447B61FB680133FB60396912
:100BF0000C4BA3FB0123DA0813469B0013445B0054
:100C0000CA1AD3B23033DBB2F8681946FFF70CFFCB
:100C100002467B6913447B617B6918461C37BD46DD
:100C200090BD00BFCDCCCCCC90B589B002AFF86000
:100C30007A601A460B46FB721346BB7200237B6137
:100C40007B68013B7B60BB6A1B09002B13D0BB6A2E
:100C50001B09FA7ABC7A0093F86811467A68234631
:100C6000FFF7E2FF02467B6913447B617B69FA6808
:100C70001344FB6011E00DE0FB7AF8681946FFF7BA
:100C8000D3FEFB680133FB607B6901337B617B68CA
:100C9000013B7B607B68002BEEDCBB6A03F00F033B
:100CA000092B0BD8BB6ADBB203F00F03DBB2303386
:100CB000DBB2F8681946FFF7B7FE19E0BB7A002BE4
:100CC0000BD0BB6ADBB203F00F03DBB23733DBB20E
:100CD000F8681946FFF7A8FE0AE0BB6ADBB203F02A
:100CE0000F03DBB25733DBB2F8681946FFF79CFEFF
:100CF0007B6901337B617B6918461C37BD4690BD1B
:100D000090B58BB002AFF860B9607A603B600023A9
:100D1000BB6100237B61FB68002B02D0FB680022D3
:100D20001A70FCE07B681B78252B0BD0FB685A1CE3
:100D3000FA607A68511C796012781A707B69013305
:100D40007B61ECE07B6801331B78252B0BD1FB68C2
:100D50005A1CFA6025221A707B6802337B607B691B
:100D600001337B61DBE02023FB770023BB777B68CB
:100D700001337B607B681B78302B04D13023FB77F9
:100D80007B6801337B600EE0BB7F1A469200134400
:100D90005B00DAB27B681B781344DBB2303BBB7775
:100DA0007B6801337B607B681B782F2B03D97B68C2
:100DB0001B78392BE8D9BA7F7B6913441A46BB6884
:100DC0009A4205D9BB68DAB27B69DBB2D31ABB772A
:100DD0007B681B78583B202B00F2938001A252F8CD
:100DE00023F000BFBB0E0008030F0008030F00082C
:100DF000030F0008030F0008030F0008030F00088B
:100E0000030F0008030F0008030F0008030F00087A
:100E1000ED0E0008690E0008030F0008030F00081C
:100E2000030F0008030F0008690E0008030F0008F5
:100E3000030F0008030F0008030F0008030F00084A
:100E4000030F0008030F0008030F0008030F00083A
:100E5000D90E0008030F0008830E0008030F0008D6
:100E6000030F00089D0E0008BC7F3B681A1D3A6006
:100E70001B68FA7FF86811462246FFF753FEB861F7
:100E800042E0BC7F3B681A1D3A601B68FA7FF86835
:100E900011462246FFF7F6FDB86135E0BC7F3B689E
:100EA0001A1D3A601B68FA7F0093F86811462246C3
:100EB0000023FFF7B9FEB86126E0BC7F3B681A1D2E
:100EC0003A601B68FA7F0093F868114622460123B6
:100ED000FFF7AAFEB86117E03B681A1D3A601B686D
:100EE000F8681946FFF7B0FDB8610DE03B681A1DC0
:100EF0003A601B68DBB2F8681946FFF795FDB861E8
:100F000002E04FF0FF3325E07B6801337B60BB6973
:100F1000FA681344FB607A69BB6913447B617B68A0
:100F20001B78002B04D07A69BB689A42FFF4FAAEB2
:100F30007A69BB689A4203D2FB6800221A7008E003
:100F4000FB68013BFB60FB6800221A707B69013B78
:100F50007B617B6918462437BD4690BD0CB480B5D3
:100F600084B000AF7860396007F11C03BB6078681B
:100F70003968BA69BB68FFF7C3FEF860FB681846BA
:100F80001037BD46BDE8804002B0704780B584B0E0
:100F900000AFF860B9607A60F8686421BA687B686D
:100FA000FFF7AEFE034618461037BD4680BD00BFB2
:100FB0000EB480B585B000AF786007F12003BB6048
:100FC0007868F969BA68FFF7E1FFF860FB681846CE
:100FD0001437BD46BDE8804003B0704780B487B089
:100FE00000AF786000237B6100233B610023FB603E
:100FF0000023BB604D4B5B6803F00C037B617B6996
:10100000042B07D0082B09D0002B34D17B68484A29
:101010001A6034E07B68464A1A6030E0434B5B68F4
:1010200003F470133B61414B5B6803F48033FB6056
:101030003B699B0C02333B61FB68002B06D13B698B
:101040003C4A02FB03F27B681A6013E0374B5B6893
:1010500003F40033002B06D03B69364A02FB03F24F
:101060007B681A6006E03B69314A02FB03F27B6849
:101070001A6004E003E07B682D4A1A6000BF2B4B26
:101080005B6803F0F0037B617B691B097B612A4A83
:101090007B6913441B78DBB2BB607B681A68BB6852
:1010A000DA407B685A60214B5B6803F4E0637B6144
:1010B0007B691B0A7B61204A7B6913441B78DBB286
:1010C000BB607B685A68BB68DA407B689A60174BE4
:1010D0005B6803F460537B617B69DB0A7B61164AC2
:1010E0007B6913441B78DBB2BB607B685A68BB68C2
:1010F000DA407B68DA600D4B5B6803F440437B6148
:101100007B699B0B7B610D4A7B6913441B78DBB2C7
:10111000BB607B68DA68BB68B2FBF3F27B681A617C
:101120001C37BD465DF8047B704700BF00100240CD
:1011300000127A0000093D00800400209004002085
:1011400080B483B000AF78600B46FB70FB78002B57
:1011500006D00949084B5A697B6813434B6106E086
:101160000549054B5A697B68DB4313404B610C37DB
:10117000BD465DF8047B70470010024080B483B028
:1011800000AF78600B46FB70FB78002B06D0094956
:10119000084B9A697B6813438B6106E00549054B50
:1011A0009A697B68DB4313408B610C37BD465DF861
:1011B000047B70470010024080B483B000AF7860B9
:1011C0000B46FB70FB78002B06D00949084BDA6907
:1011D0007B681343CB6106E00549054BDA697B6800
:1011E000DB431340CB610C37BD465DF8047B704791
:1011F0000010024080B58CB000AF786039600023E9
:10120000FB620023BB6200237B6200233B6200235E
:10121000FB617B68FB617B681B8A9BB2FB62FA6A9D
:101220004CF6FF731340FB623B68DB881A46FB6A8F
:101230001343FB62FB6A9AB27B681A827B689B89C4
:101240009BB2FB62FA6A4EF6F3131340FB623B68F3
:101250009A883B681B8913439AB23B685B891343A6
:101260009BB21A46FB6A1343FB62FB6A9AB27B6825
:101270009A817B689B8A9BB2FB62FA6A4FF6FF43B6
:101280001340FB623B689B891A46FB6A1343FB626F
:10129000FB6A9AB27B689A8207F108031846FFF747
:1012A0009DFEFB692E4A934202D17B69BB6201E03D
:1012B0003B69BB627B689B899BB29BB21BB2002BD4
:1012C0000CDABA6A13469B0013449A001A443B682E
:1012D0001B685B00B2FBF3F37B620BE0BA6A134658
:1012E0009B0013449A001A443B681B689B00B2FBA6
:1012F000F3F37B627B6A1B4AA2FB03235B091B019E
:10130000FB62FB6A1B09642202FB03F37A6AD31AAD
:101310003B627B689B899BB29BB21BB2002B0CDAB1
:101320003B6ADB0032330F4AA2FB03235B0903F065
:101330000703FA6A1343FB620BE03B6A1B0132337B
:10134000084AA2FB03235B0903F00F03FA6A134365
:10135000FB62FB6A9AB27B681A813037BD4680BD5A
:10136000003801401F85EB5180B483B000AF786036
:101370000B46FB70FB78002B08D07B689B899BB2E7
:1013800043F400539AB27B689A8107E07B689B899B
:101390009BB223F400539AB27B689A810C37BD4606
:1013A0005DF8047B704700BF80B483B000AF786005
:1013B0000B467B8013467B707B78002B08D07B68C4
:1013C0009B8A9AB27B8813439AB27B689A8209E01F
:1013D0007B689B8A9AB27B88DB439BB213409AB2AC
:1013E0007B689A820C37BD465DF8047B704700BF6E
:1013F00080B483B000AF78600B467B807B88C3F3FA
:1014000008039AB27B689A800C37BD465DF8047B6E
:10141000704700BF80B485B000AF78600B467B801A
:101420000023FB737B681B889AB27B8813409BB2B6
:10143000002B02D00123FB7301E00023FB73FB7B35
:1014400018461437BD465DF8047B704780B483B0FE
:1014500000AF03463960FB7197F90730002B0BDAB8
:101460000D49FB7903F00F03043B3A68D2B2120135
:10147000D2B20B441A7609E0084997F907303A6866
:10148000D2B21201D2B20B4483F800230C37BD460E
:101490005DF8047B704700BF00ED00E000E100E074
:1014A00080B582B000AF78607B68B3F1807F01D3F4
:1014B000012311E00A4A7B6823F07F43013B53601C
:1014C0004FF0FF300F21FFF7C1FF054B00229A605C
:1014D000034B07221A60002318460837BD4680BD1B
:1014E00010E000E080B582B000AF7860074B1A686A
:1014F0007B68B2FBF3F31846FFF7D2FF4FF0FF30E3
:101500000021FFF7A3FF0837BD4680BD0000002083
:1015100080B400AF034B1B681846BD465DF8047BE2
:10152000704700BF3005002080B400AF044B1B683B
:101530000133034A1360BD465DF8047B704700BF6A
:1015400030050020ABBE01E000207047002A00D02B
:1015500010600120704706980188034A914202D129
:10156000043006907047FEE7ABBE000080B483B045
:1015700000AF78607B681A684FF6FE7313407A6894
:1015800013607B6800221A607B6800225A607B68C7
:1015900000229A607B680022DA607B68434A9342AB
:1015A00006D1434A424B5B6843F00F03536077E038
:1015B0007B68404A934206D13D4A3D4B5B6843F00D
:1015C000F00353606CE07B683B4A934206D1384A93
:1015D000374B5B6843F47063536061E07B68374A64
:1015E000934206D1324A324B5B6843F470435360F6
:1015F00056E07B68324A934206D12D4A2C4B5B68F9
:1016000043F4702353604BE07B682E4A934206D12B
:10161000274A274B5B6843F47003536040E07B68C4
:10162000294A934206D1224A214B5B6843F07063FA
:10163000536035E07B68254A934206D1244A244B07
:101640005B6843F00F0353602AE07B68214A9342B2
:1016500006D11F4A1E4B5B6843F0F00353601FE046
:101660007B681D4A934206D1194A194B5B6843F4C3
:101670007063536014E07B68184A934206D1144AA1
:10168000134B5B6843F47043536009E07B68144A72
:10169000934205D10E4A0E4B5B6843F470235360AE
:1016A0000C37BD465DF8047B704700BF0800024060
:1016B000000002401C000240300002404400024092
:1016C000580002406C0002408000024008040240C2
:1016D000000402401C040240300402404404024062
:1016E0005804024080B485B000AF786039600023B0
:1016F000FB607B681B68FB60FB6823F4FF4323F0FF
:101700007003FB603B689A683B681B6A1A433B683E
:101710001B691A433B685B691A433B689B691A4320
:101720003B68DB691A433B685B6A1A433B689B6A08
:101730001343FA681343FB607B68FA681A603B68DE
:10174000DA687B685A603B681A687B689A603B6815
:101750005A687B68DA601437BD465DF8047B7047D1
:1017600080B483B000AF78600B46FB70FB78002B31
:1017700006D07B681B6843F001027B681A6006E0B4
:101780007B681A684FF6FE7313407A6813600C3753
:10179000BD465DF8047B704780B483B000AF7860CD
:1017A0007B6803F08053002B03D0064A7B685360AC
:1017B00002E0054A7B6853600C37BD465DF8047B48
:1017C000704700BF000402400000024080B487B0B0
:1017D00000AF786000237B6100233B610F23FB6037
:1017E0007B68DB78002B3AD0274BDB68DB4303F4C4
:1017F000E0631B0A7B617B69C3F104033B617B6986
:10180000FA6822FA03F3FB607B685B781A463B694F
:1018100002FA03F37B617B689B781A46FB681340EE
:101820007A6913437B617B691B017B61174A7B6883
:101830001B787969C9B213440A4683F80023134A16
:101840007B681B785B09DBB218467B681B7803F06A
:101850001F03012101FA03F342F820300FE00B4986
:101860007B681B785B09DBB218467B681B7803F04A
:101870001F0301229A4000F1200341F823201C3766
:10188000BD465DF8047B704700ED00E000E100E03C
:1018900080B582B000AF0323BB711023FB7101231D
:1018A000BB803B1D03481946FEF700FE0837BD46C6
:1018B00080BD00BF000C014080B400AF034B01228B
:1018C0005A61BD465DF8047B704700BF000C0140C3
:1018D00080B400AF034B01221A61BD465DF8047B62
:1018E000704700BF000C014080B582B000AF786047
:1018F0000B467B807B88786800211A4600F048FD03
:101900000837BD4680BD00BF80B500AFFFF700FEC1
:101910000246034B1A60034B01221A7080BD00BFC0
:10192000380500203405002090B583B000AF786002
:101930000B467B8038E07B8824484FF47A717A68C4
:1019400000F048FC03461A46214B1A60204B1B68E6
:101950001B78002B28D01E4B1C681D4B1B6818469B
:1019600000F028FE0346204619461A4A042300F0D8
:1019700031FC03461A46184B1A60174B1B68002BA4
:1019800012D0134B1C68124B1B68184600F012FE55
:1019900003469BB220461946FFF7A6FF0F4B0122D4
:1019A0001A700F4B00221A700D4B1B78DBB2012B03
:1019B00009D1FFF7ADFD02460A4B1B68D31A41F26D
:1019C0006F729342B7D90C37BD4690BD0C0700200B
:1019D0004C110020903200085011002035050020E5
:1019E000340500203805002080B582B000AF0346E2
:1019F000FB8049E02D484FF47A712D4A0A2300F00C
:101A0000E9FB03461A462B4B1A602A4B1B681B78CE
:101A1000002B39D029E0254800F0CCFD03462348AF
:101A20001946254A092300F0D5FB03461A46234BE5
:101A30001A60224B1B68002B17D01E4B1B681A46DE
:101A40001E4B1B68D31A1A461D4B1A60194B1A6895
:101A5000FB8809339BB210461946FFF745FF194B27
:101A600001221A70184B00221A70174B1B78DBB238
:101A7000012B09D1FFF74CFD0246144B1B68D31A0A
:101A800041F26F729342C6D90F4B1B78DBB2012B28
:101A900009D1FFF73DFD02460C4B1B68D31A41F2FA
:101AA0006F729342A6D90837BD4680BD0C0700204F
:101AB000983200084C110020A43200085011002078
:101AC00040050020350500203405002038050020A1
:101AD00080B582B000AF786010E000BF1848802168
:101AE000FFF798FC0346002BF8D07B685A1C7A60FD
:101AF0001B789BB212481946FFF77AFC7B681B786B
:101B0000002BEAD100BF0E488021FFF783FC03467B
:101B1000002BF8D00A480D21FFF76AFC00BF0848E7
:101B20008021FFF777FC0346002BF8D0FFF7ECFE8F
:101B300003480A21FFF75CFC0837BD4680BD00BFA3
:101B40000048004090B585B000AF0346FB71FB79BB
:101B5000234A52F82330FB6010E000BF2148802167
:101B6000FFF758FC0346002BF8D0FB685A1CFA60BC
:101B70001B789BB21B481946FFF73AFCFB681B78A1
:101B8000002BEAD1FFF7C0FE00BF16488021FFF707
:101B900041FC0346002BF8D012480D21FFF728FC2A
:101BA00000BF10488021FFF735FC0346002BF8D01A
:101BB0000C480A21FFF71CFCFB79094A52F8234024
:101BC000FB79074A52F82330184600F0F3FC03462D
:101BD0009BB220461946FFF7A7FE1437BD4690BDBD
:101BE0009804002000480040B0B58AB000AF78608B
:101BF00039603868204900F073FF00201E4900F06A
:101C00006FFF02461D4B1A601C4B1B68184600F004
:101C100087F90346DBB23B730020194900F060FFEF
:101C200003463B610020174900F05AFF03467B61E1
:101C30000020144900F054FF0346BB610020124904
:101C400000F04EFF0020114900F04AFF0346FB61FF
:101C500000200F4900F044FF03463B627B681D46AD
:101C600007F10C040FCC0FC594E8070085E80700C6
:101C700078682837BD46B0BDC43200085C0D00202E
:101C8000C8320008CC320008D0320008D432000834
:101C9000D8320008B0B58CB002AF7862854B002214
:101CA0001A76FFF735FC0246834B1A6083484FF4DF
:101CB0007A71834A042300F08DFA03461A46814B59
:101CC0001A60804B1B68002B00F0E6807D4B1B6880
:101CD0007D48194600F010FC7C480021FFF740FDCC
:101CE000784B1C68774B1B68184600F063FC034672
:101CF0009BB220461946FFF7F7FD70484FF47A7102
:101D0000FEF782FA6B4C3B4618466F49FFF76CFFB3
:101D100025463C460FCC0FC594E8070085E8070030
:101D2000644B9B6818466A4900F0CAFD0346002BC5
:101D300000F0B2805F4BDB681846664900F0C0FDDA
:101D40000346002B00F0A8805A4BDB6818463F2161
:101D500000F06CFB0346002B45D0564BDB68184661
:101D60005D4900F0BDFE02465C4B1A605B4B1B6890
:101D700018463D2100F05AFB0346002B10D0574B6C
:101D80001B681846564900F0ABFE0246554B1A60D8
:101D90000020554900F0A4FE0246544B1A601FE093
:101DA00000204F4900F09CFE02464E4B1A60002076
:101DB0004F4900F095FE02464C4B1A6000204849FE
:101DC00000F08EFE02464B4B1A604A4B1B68002BFC
:101DD00006D00020464900F083FE0246464B1A60BA
:101DE000344B01221A76414B1B68184600F098F8D4
:101DF0000346DAB2414B1A70404B1B78002B03D0DC
:101E00003E4B1B78012B03D13C4B1A783C4B1A708C
:101E1000394B1B68002B26D0374B1B68184600F047
:101E20007FF80346DAB2374B1A70364B1B78012B1A
:101E30000BD0022B02D0002B0ED014E0324B01222B
:101E40001A70324B01221A700DE02F4B01221A70CA
:101E50002E4B00221A7006E02B4B00221A702B4BDF
:101E600000221A7000BF264B1B781D46264B1B789C
:101E70001A46264B1B78D418254B1B781A46254B3F
:101E80001B7800920193244824492A462346FEF7F2
:101E9000C9FC084B01221A767B6A064A1C46154685
:101EA0000FCD0FC495E8070084E80700786A28374B
:101EB000BD46B0BDF0060020180500200C0700202C
:101EC0005432000858110020600D002030000240FC
:101ED000DC320008E4320008EC320008480D002033
:101EE000F0320008F40C0020F4320008440D002009
:101EF000F832000848110020400D00209404002012
:101F00000C050020950400200D0500200E05002082
:101F10001400002015000020FC3200080C330008DB
:101F200000210A2200F0A4BE2DE9F0414FF0010E7D
:101F3000744600254FF0FF3663198B4200EB06070D
:101F40000DD23F5D10F803C0BC452DD21D460124C3
:101F5000C6EB030E63198B4200EB0607F1D34FF07B
:101F600001084446C2F800E000254FF0FF3763192E
:101F7000994200EB070E0ED91EF804E010F803C0DA
:101F8000F44518D91D460124C7EB0308631999428B
:101F900000EB070EF0D80137701C874224BF38468B
:101FA000C2F80080BDE8F0810CD04FF0010E2E4643
:101FB00074467544C0E709D04FF001082F464446E7
:101FC0004544D4E7744505D00134B5E7444504D011
:101FD0000134CCE71D460124AEE71D460124C6E7C7
:101FE0002DE9F04FADF22C4D904607468B4610463A
:101FF000194609AA1E46FFF797FF824609AA0DF265
:10200000244142F8046F8A42FBD1002E00F0DB80AD
:10201000741E2146424608EB06050DF1280912F808
:10202000013BAA4249F8231001F1FF31F7D1099988
:1020300040464144524600F071FE00286DD1099B94
:102040000AF1FF320393F31A049308EB0203C6EB81
:102050000B010693CAF1010305460592019107930E
:10206000CDF808A00AE020B1049A03998B4238BF4A
:1020700013461D44019B0020AB4246D307EB050BE2
:102080001BF8043059F82330002BECD1029B83421B
:1020900038BF0346A34212D25A19BE5C18F803E0B7
:1020A0003A44B64508EB030106D033E011F801EFDE
:1020B00012F8016FB6452DD10133A342F6D3029B2E
:1020C0000599834298BF194616D9059B069EEA18C2
:1020D000BB5C36783A449E427AD1069B08EB000AF4
:1020E00006E013F801ED12F8016DB64504D1614622
:1020F000534501F1FF3CF4D1013088425ED8039B87
:1021000004981D44019BAB42B8D200200DF22C4D27
:10211000BDE8F08F079A1544ABE7CAEB06015145BD
:1021200038BF51460AF1FF33019343440131029312
:10213000CAF10103C6EB0B0204914FF0000C08EB4F
:102140000A0B039307EB0C00035D59F823306BBBBC
:10215000A24515D20CEB0A017B5C9BF80050394478
:102160009D4218BF534625D15D46534605E015F8FC
:1021700001EF11F8016FB6451CD10133A342F6D32C
:10218000019B0133C2D0019B029E0CEB03017B5CDF
:10219000357839449D4208D133464345B6D013F8CB
:1021A000016D11F8015DAE42F7D0049B9C4462457D
:1021B000C8D2AAE703998C449C44F8E758460DF22C
:1021C0002C4DBDE8F08F4FF0FF340DF128092EE7BC
:1021D000029991E72DE9F04F814689B0002B7CD020
:1021E0008B428B461C466FD81F2B054670D8117842
:1021F00090465A4600F048FD8146002864D0012CE4
:102200006BD02A1A02EB0B05AC425DD8214607AA17
:102210004046FFF789FE07998346024641444046FF
:1022200000F07CFD002862D18446079B0BF1FF3A49
:102230000393E31A049308EB0A032A1B0593CBF1DB
:10224000010301920293DC45634638BF5B469C4222
:1022500013D91A1819F8025018F803604A44AE420C
:1022600008EB030106D03CE011F8016F12F8015FA2
:10227000AE4236D101339C42F6D8E345514640F296
:102280008480059E00EB0A0219F8023035784A4432
:102290009D427AD1334608EB0C0E06E013F8017D1F
:1022A00012F8016DB74204D12946734501F1FF359B
:1022B000F4D10CF1010C8C4559D8039BDDF810C00A
:1022C0001844019B8342BED2002009B0BDE8F08FC4
:1022D000FFF786FE09B0BDE8F08F484609B0BDE8BB
:1022E000F08F029A4FF0000C10441844E9E7CBEB52
:1022F00004035B4538BF5B4601330BF1FF3C02939F
:102300000793CBF101032A1B08EB0C0A002008EB12
:102310000B0E01935C4514D900EB0B0119F8013049
:102320009EF8005049449D4225D175465B4605E024
:1023300015F8017F11F8016FB7421DD101339C429E
:10234000F6D8BCF1FF3F12D000EB0C0119F80130B8
:102350009AF8005049449D4214D1534605E013F8C1
:10236000016D11F8015DAE420CD14345F7D14844EF
:1023700009B0BDE8F08F5B460199084418448242D9
:10238000C8D2A1E7029B1844F9E7594691E700BF7C
:1023900070B4840746D0541E002A41D0CDB2034603
:1023A00002E0621EE4B3144603F8015B9A07F8D119
:1023B000032C2ED9CDB245EA05250F2C45EA05455B
:1023C00019D9264603F11002103E0F2E42F8105C78
:1023D00042F80C5C42F8085C42F8045C02F110021E
:1023E000F2D8A4F1100222F00F0204F00F04103210
:1023F000032C13440DD91E462246043A032A46F8FC
:10240000045BFAD8221F22F003020432134404F0C2
:1024100003042CB1C9B21C4403F8011BA342FBD135
:1024200070BC704714460346C2E700BFC9B270B41F
:10243000002933D0850710D00378002B59D099425A
:1024400018BF431C06D127E013F8012B002A4DD0FA
:10245000914221D09A071846F6D141EA0126036835
:1024600046EA064601E050F8043F83EA0605A5F176
:102470000134A3F1013224EA050422EA03032343D1
:1024800013F0803FEFD0037823B932E010F8013F1A
:10249000002B2ED09942F9D170BC704784070BD025
:1024A0000378002BF8D0431C03E002780133002AA4
:1024B000F2D099071846F8D10268A2F1013323EA55
:1024C000020313F0803F08D150F8042FA2F101332A
:1024D00023EA020313F0803FF6D00378002BDBD011
:1024E00010F8013F002BFBD170BC7047104670BC48
:1024F0007047184670BC704780EA0102844612F0AB
:10250000030F4FD111F0030F32D14DF8044D11F0EC
:10251000040F51F8043B0BD0A3F101329A4312F09F
:10252000803F04BF4CF8043B51F8043B16D100BF78
:1025300051F8044BA3F101329A4312F0803FA4F109
:1025400001320BD14CF8043BA24312F0803F04BF90
:1025500051F8043B4CF8044BEAD023460CF8013BFD
:1025600013F0FF0F4FEA3323F8D15DF8044B7047A7
:1025700011F0010F06D011F8012B0CF8012B002AE5
:1025800008BF704711F0020FBFD031F8022B12F0D4
:10259000FF0F16BF2CF8022B8CF8002012F47F4F8F
:1025A000B3D1704711F8012B0CF8012B002AF9D197
:1025B000704700BF20F0030110F00300C0F10000DD
:1025C00051F8043B00F1040C4FEACC0C6FF0000210
:1025D0001CBF22FA0CF213434FF0010C4CEA0C2CF6
:1025E0004CEA0C4CA3EB0C0222EA030212EACC12D6
:1025F00004BF51F8043B0430F4D0C2F1000102EAF8
:102600000102B2FA82F2C2F11F0200EBD20070475F
:102610002DE9F0414FF0010E744600254FF0FF36D2
:1026200063198B4200EB06070DD23F5D10F803C023
:10263000BC452DD21D460124C6EB030E63198B4207
:1026400000EB0607F1D34FF001084446C2F800E062
:1026500000254FF0FF376319994200EB070E0ED9A2
:102660001EF804E010F803C0F44518D91D460124F3
:10267000C7EB03086319994200EB070EF0D8013746
:10268000701C874224BF3846C2F80080BDE8F08144
:102690000CD04FF0010E2E4674467544C0E709D0A9
:1026A0004FF001082F4644464544D4E7744505D011
:1026B0000134B5E7444504D00134CCE71D4601247C
:1026C000AEE71D460124C6E72DE9F04FADF2144DEB
:1026D000164605468B461046194603AA1C46FFF7C8
:1026E00097FF804603AB0DF20C4243F8044F934230
:1026F000FBD15CB13246631E371904A812F8011BE6
:10270000BA4240F8213003F1FF33F7D10399304644
:102710003144424600F002FB00286DD108F1FF333E
:102720000093F31882460193234681465446584647
:102730009A4609EB0A073A1A0021284400F0A4FA45
:10274000002840F0AC80002F00F0A980EB1913F8AE
:10275000012C04AB53F822304BB124B1039A9342BD
:1027600001D2C2EB0A03994400243846E1E744450C
:10277000234638BF43460AF1FF3E734513D203EBAD
:102780000902A85C16F803C02A44844506EB03013D
:1027900006D02DE011F801CF12F8010F844527D1A2
:1027A00001337345F6D34445009980F08780009B40
:1027B000019809EB0302AB5C00782A4498427DD172
:1027C000019B06EB040B06E013F801ED12F8010D76
:1027D000864504D161465B4501F1FF3CF4D10134EB
:1027E0008C4256D8039C3846A144C4EB0A04A0E7A7
:1027F000C8F101029144B6E7C8EB0403434538BF72
:10280000434608F1FF3701330393F3195846A246B4
:10281000C34698464FF0000909EB0A04221A00212A
:10282000284400F031FAD0BBCCB32B1913F8012C9B
:1028300004AB53F82230C3BB0AF1FF30834514D2F6
:1028400009EB0B02AB5C16F80BE02A449E4506EB45
:102850000B015B4606D02BE011F801CF12F801EF17
:10286000F44525D101338342F6D37B1C11D009EB0B
:102870000702AB5C98F800102A44994214D14346F1
:1028800005E013F8010D12F8011D88420CD1B34286
:10289000F7D105EB09000DF2144DBDE8F08F0020D3
:1028A0000DF2144DBDE8F08F039B99442046B3E729
:1028B000CBF10102914499442046ADE741468EE7B1
:1028C0000278002A00F003812DE9F04F91F8008092
:1028D00085B04346B8F1000F15D0844601F1010ED2
:1028E000012402E01EF8013B63B19A4214BF0024A8
:1028F00004F001041CF8012F7746002AF2D19EF85B
:1029000000301BB934B105B0BDE8F08F002005B030
:10291000BDE8F08F0E46054641460130FFF786FDC3
:10292000BC1B07460028F1D0012CECD028198742A7
:1029300094BFC7EB000B4FF0010B1F2C08D9384692
:10294000594632462346FFF7BFFE05B0BDE8F08F7B
:10295000214603AA3046FFF75BFE039980460246F4
:102960003144304600F0DAF9002858D18146054656
:10297000B246584608F1FF330193F31800932E191D
:10298000321A0021384400F07FF90028BED1002E11
:10299000BCD0C1454B4638BF43469C4212D95A1958
:1029A000B95C1AF803003A4488420AEB030E06D0D9
:1029B0002DE01EF8010F12F8011F884227D10133C4
:1029C0009C42F6D8019BC845194640F28380009886
:1029D000EA18BB5C00783A4498427BD1009B0AEB32
:1029E000090B06E013F801CD12F801EDF44504D10E
:1029F00001465B4501F1FF30F4D109F10109894538
:102A00006AD8039B30461D44C3EB0409B7E7C8F1FD
:102A1000010215441D444FF000093046AFE7C8EBF2
:102A20000403434508F1FF3238BF434606EB020971
:102A30005846CB469146013303934FF0000A0AEB08
:102A400004052A1A0021384400F01EF900287FF4FA
:102A50005DAF002D3FF45AAF444514D90AEB08028C
:102A6000BB5C16F808003A44984206EB080143465E
:102A700006D022E011F801EF12F8010F86451CD1B3
:102A800001339C42F6D8B9F1FF3F11D00AEB09029D
:102A9000BB5C9BF800103A44994214D15B4605E0B8
:102AA00013F8010D12F8011D88420CD1B342F7D181
:102AB00007EB0A0005B0BDE8F08FC8F101029244AF
:102AC0009A442846BBE7039B28469A44B7E70B780D
:102AD00023B97047414690E7781914E70020704702
:102AE000024A012312685C3200F002B87804002028
:102AF000F0B420B307460D4617F8016B01E0A6427B
:102B000016D015F8014B002CF9D1EEB13E460C461B
:102B100016F8015B00E073B114F8013BAB42FAD147
:102B20005DB100233B70166006463046F0BC70472E
:102B300063B13846DEE73746E8E72E46F3E710682C
:102B40000028D7D10646F0E71660EEE71760064684
:102B50000370EAE72DE9F04F444C83460E46D4F863
:102B600000E000E02646344614F8015B0EEB050059
:102B7000407800F0080000F0FF080028F2D12D2D69
:102B80004BD02B2D04BF7578B41C1BB1102B60D01B
:102B90009A4603E0302D54D00A239A46B8F1000F2C
:102BA00014BF4FF000406FF00040B0FBFAF900276F
:102BB000BC460AFB19000CE0303DAB4219DD7E1C1F
:102BC00005D0CC4524D821D00AFB0C5C012714F891
:102BD000015B0EEB0506767816F0040FECD116F0CB
:102BE000030606D0012E0CBF37265726AD1BAB427D
:102BF000E5DC7B1C16D0C8F100008CEA00004044E4
:102C00004AB107B1611E1160BDE8F08F8542DBDD7E
:102C10004FF0FF37DBE7BDE8F08FB41C75784FF05D
:102C20000108B2E7B8F1000F4FF0220314BF4FF0D4
:102C300000406FF00040CBF80030002AE2D1BDE840
:102C4000F08F237803F0DF03582B09D008239A462E
:102C5000A4E7302D9CD1207800F0DF00582897D1D0
:102C60004FF0100A65785346023497E708050020B4
:102C700030B40D46034C134601462A46206830BC4A
:102C8000FFF768BF78040020830770B4C9B240D052
:102C9000541E002A3FD003788B4218BF431C05D135
:102CA0001CE0ECB10278013C8A4217D013F0030F0C
:102CB000184603F10103F4D1032C14D884B103782E
:102CC0008B420BD00519431C02E002788A4205D0E2
:102CD000AB42184603F10103F7D1002070BC7047E6
:102CE000204670BC7047024641EA012646EA064685
:102CF000136810467340A3F1013525EA030313F06E
:102D0000803F02F10402D9D1043C032C1046EFD8D5
:102D1000D4E71446D0E71046E0E700BF032A70B4BA
:102D200026D940EA01039B0711D004780D78AC4204
:102D300022D10244431C05E013F8014B11F8015F56
:102D4000AC4219D19342F7D1002070BC70470C46B9
:102D500003461E6825681846AE42214603F1040367
:102D600004F1040404D1043A032A18462146F0D899
:102D7000002ADAD11046E8E7601B70BC704700BF3C
:102D80007B224944223A222573222C224E6F64650D
:102D9000537461747573223A7B2270756D7053742D
:102DA000617465223A222564222C2266616E537476
:102DB000617465223A222564222C22637572726541
:102DC0006E7454656D70223A222564222C2263753C
:102DD0007272656E7448756D6964223A22256422A8
:102DE0002C7D2C2247656E6572616C53746174751D
:102DF00073223A7B2243757272656E7449505F5735
:102E0000414E223A222573222C2263757272656E1E
:102E10007449505F4C414E223A222573222C227372
:102E2000656C665F636865636B5F726573756C7410
:102E3000223A224F4B227D7D200000005357414D06
:102E4000505F52454C4159007B224944223A222589
:102E500073222C22537461747573223A7B2225737A
:102E6000223A222573222C2243757272656E7449B0
:102E7000505F57414E223A222573222C22637572ED
:102E800072656E7449505F4C414E223A222573227E
:102E90002C2273656C665F636865636B5F72657334
:102EA000756C74223A224F4B227D7D200000000079
:102EB00047455400504F53540000000050555400F3
:102EC00044454C4554450000436F6E74656E742D47
:102ED000547970653A200000436F6E74656E742DEE
:102EE0004C656E6774683A200000000041636365BA
:102EF00070743A20000000004163636570742D45D2
:102F00006E636F64696E673A20000000486F7374E7
:102F10003A200000557365722D4167656E743A2042
:102F20000000000020485454502F312E3120323000
:102F300030204F4B0D0A436F6E74656E742D5479BB
:102F400070653A206170706C69636174696F6E2F8F
:102F50006A736F6E0D0A436F6E6E656374696F6E90
:102F60003A20636C6F73650D0A0000007B224944B0
:102F7000223A2264696D3031222C225374617475B7
:102F800073223A7B2243757272656E7449505F57A3
:102F9000414E223A22302E302E302E30222C226307
:102FA000757272656E7469705F6C616E223A22315F
:102FB00039322E3136382E342E31222C2273656C64
:102FC000665F636865636B5F726573756C74223AE4
:102FD000224F4B227D7D20000000000020203C6815
:102FE000746D6C3E3C686561643E3C6D6574612047
:102FF000636861727365743D225554462D38222FE3
:103000003E3C6D657461206E616D653D227669653B
:1030100077706F72742220636F6E74656E743D22D8
:1030200077696474683D6465766963652D77696462
:1030300074682C20696E697469616C2D7363616CAE
:10304000653D312E30223E3C7469746C653E4469A6
:103050006D6D696E67204D6F64756C6520436F6E92
:1030600074726F6C20506167653C2F7469746C6575
:103070003E3C2F686561643E3C666F726D20616303
:1030800074696F6E3D2264696D6D696E675F666F0E
:10309000726D2E617370223E44696D6D696E67209A
:1030A00056616C75653A203C696E70757420747950
:1030B00070653D227465787422206E616D653D22D5
:1030C00064696D76616C7565223E3C62723E3C6956
:1030D0006E70757420747970653D227375626D69C8
:1030E00074222076616C75653D225375626D69743A
:1030F000223E3C2F666F726D3E3C2F68746D6C3EB5
:10310000000000002564000041542B434950534502
:103110004E443D25642C25640D0A0000257325735B
:1031200025640D0A0D0A25730000000041542B434D
:10313000495053454E443D25642C25640D0A2573A2
:10314000000000004154000041542B4349505354A7
:10315000415455530000000041542B43574C4150FB
:103160000000000041542B474D52000041542B43B6
:10317000574D4F44453F000041542B43574D4F445A
:10318000453D330041542B43574A41503D22535350
:103190004944222C2250415353574F52442200009D
:1031A00041542B43574A41503F00000041542B5299
:1031B0005354000041542B4349504D55583D310064
:1031C00041542B43494F424155443D313135323012
:1031D0003000000041542B4349505345525645524C
:1031E0003D312C383000000041542B4349465352A6
:1031F0000000000041542B43495053544152543D68
:103200003F00000041542B43574C4946000000004A
:1032100041542B43575141500000000041542B436F
:10322000575341503D00000041544530000000001C
:1032300072656164790000004C696E6B00000000EB
:10324000556E6C696E6B00004F4B000053454E4449
:10325000204F4B002B495044000000004552524F74
:103260005200000077726F6E672073796E74617818
:10327000000000006275737920702E2E2E00000071
:103280006275737920696E65742E2E2E0000000021
:103290004F4B0D0A0000000041542B434950534549
:1032A0004E44000053454E44204F4B0D0A00000091
:1032B00041542B434950434C4F53453D25640D0A1F
:1032C000000000002C0000003A0000002000000078
:1032D0000D0A00007B0000007D000000504F535499
:1032E0000000000070756D70000000003F000000DD
:1032F0003D00000000000000260000003137322EA3
:1033000032302E3131322E31333600003139322E07
:103310003136382E342E310041542B43574A415018
:103320003D222573222C22257322000041542B4379
:10333000575341503D22222C22222C22222C222281
:10334000000000000020202020202020202028280D
:103350002828282020202020202020202020202055
:103360002020202020881010101010101010101095
:1033700010101010100404040404040404040410C5
:103380001010101010104141414141410101010153
:10339000010101010101010101010101010101011D
:1033A0001010101010104242424242420202020229
:1033B00002020202020202020202020202020202ED
:1033C000101010102000000000000000000000009D
:1033D00000000000000000000000000000000000ED
:1033E00000000000000000000000000000000000DD
:1033F00000000000000000000000000000000000CD
:1034000000000000000000000000000000000000BC
:1034100000000000000000000000000000000000AC
:10342000000000000000000000000000000000009C
:10343000000000000000000000000000000000008C
:08344000000000000000000084
:1034480000A24A040000000000000000010203047A
:1034580006070809460F00002C010000B02E0008DE
:10346800B42E0008BC2E0008C02E0008C82E000884
:10347800D82E0008EC2E0008F82E00080C2F0008A3
:10348800142F0008242F00086C2F000800000000EB
:103498000000000000000000010000000000000023
:1034A8000000000000000000000000000000000014
:1034B8000000000000000000000000000000000004
:1034C80000000000000000000000000000000000F4
:1034D80000000000000000000000000000000000E4
:1038B8000000000000000000500000200000000090
:1038C80000000000010203040102030406070809BE
:1038D80002040608FFFF00004431000848310008D0
:1038E80058310008643100086C310008783100084C
:1038F80084310008A0310008AC310008B431000858
:10390800C0310008D4310008E8310008F43100085B
:1039180004320008103200081C320008283200085F
:1039280030320008383200084032000848320008B7
:103938004C320008543200085C3200086432000837
:0C3948007432000880320008443300088C
:0400000508000000EF
:00000001FF
