:020000040800F2
:100000005015002049040008A50400081B1800082A
:10001000A5040008A5040008A504000800000000CD
:10002000000000000000000000000000A50400081F
:10003000A504000800000000A5040008ED17000852
:10004000A5040008A5040008A5040008A5040008EC
:10005000A5040008A5040008A5040008A5040008DC
:10006000A5040008A5040008A5040008A5040008CC
:10007000A5040008A5040008A5040008A5040008BC
:10008000A5040008A5040008A5040008A5040008AC
:10009000A5040008A5040008A5040008A50400089C
:1000A000A5040008A5040008A5040008A50400088C
:1000B000A5040008A5040008A5040008A50400087C
:1000C000A5040008A5040008A5040008A50400086C
:1000D000A5040008A5040008A5040008A50400085C
:1000E000A5040008A5040008A504000800000000FD
:1000F0000000000000000000000000000000000000
:1001000000000000000000005FF808F180B590B02A
:1001100000AFF860B9601346FB800120012101F0B7
:1001200037F90820012101F051F90120012101F0E6
:100130004DF94FF48020012101F066F900F0AAF892
:100140004FF4706001F0A6FC2B4AFB6813602A4B49
:100150000C225A81284B00229A81274B00221A81B7
:10016000254B0022DA80244B00229A802348224922
:1001700001F0A2F9224801F077FB224B3B61BB68FA
:100180007B610023BB61FB88FB6100233B62802312
:100190007B620023BB620023FB6220233B634FF49E
:1001A00040537B630023BB6307F1100314481946D7
:1001B00001F016FC0D2387F83C30012387F83F300F
:1001C000002387F83D30002387F83E3007F13C03D9
:1001D000184601F079FC0A48012101F03FFC07486C
:1001E000012101F023FA05484021012201F03EFAE5
:1001F0004037BD4680BD00BF3805002000480040A4
:10020000300002400448004080B58EB000AF7860F6
:100210000B467B804FF4706001F03CFC1B4801F002
:1002200023FB1B4BBB607B68FB6000233B617B882F
:100230007B610023BB618023FB6100233B620023C1
:100240007B622023BB624FF44053FB6200233B637D
:1002500007F108030D48194601F0C2FB0D2387F88A
:100260003430012387F83730002387F835300023F6
:1002700087F8363007F13403184601F025FC0348AF
:10028000012101F0EBFB3837BD4680BD3000024054
:100290000448004080B500AF0C4B03229A700B4B12
:1002A0000422DA70094B4FF400621A8008480749AB
:1002B00000F0FCF8054B1822DA70044B4FF4806212
:1002C0001A800348014900F0F1F880BD3405002090
:1002D000000C014080B500AF154A154B1B6843F078
:1002E000010313601249124B5A68124B13404B60C2
:1002F0000F4A0F4B1B6823F0847323F48033136081
:100300000B4A0B4B1B6823F480231360084A084BED
:100310005B6823F4FE035360054B4FF41F029A60A1
:1003200000F00CF8044B4FF000629A6080BD00BFF3
:10033000001002400000FFF800ED00E080B500AFC3
:1003400000F002F880BD00BF80B483B000AF00238E
:100350007B6000233B603A4A394B1B6843F480338F
:100360001360374B1B6803F400333B607B68013339
:100370007B603B68002B03D17B68B3F5A06FF0D1A5
:100380002F4B1B6803F40033002B02D001233B608A
:1003900001E000233B603B68012B4BD1294A294BEC
:1003A0001B6843F010031360264A264B1B6823F09A
:1003B00003031360234A234B1B6843F002031360BB
:1003C0001F4A1F4B5B6853601D4A1D4B5B6853609F
:1003D0001B4A1B4B5B6843F480635360184A184BFD
:1003E0005B6823F47C135360154A154B5B6843F438
:1003F000E8135360124A124B1B6843F0807313607A
:1004000000BF0F4B1B6803F00073002BF9D00C4AA0
:100410000B4B5B6823F003035360094A084B5B688E
:1004200043F00203536000BF054B5B6803F00C030D
:10043000082BF9D10C37BD465DF8047B704700BF2F
:10044000001002400020024080B582B000AF104B87
:100450007B60104B3B6007E03B681A1D3A607A688E
:10046000111D796012681A603B680B4A9342F3D3FE
:100470000A480B494FF000028842B8BF40F8042BED
:10048000FADBFFF727FF00F0FBF80837BD4680BD19
:10049000603700080000002004050020040500204B
:1004A0005011002080B400AFFEE700BF80B489B0D7
:1004B00000AF786039600023FB6100233B610023BB
:1004C000BB610023FB6000237B610023BB603B68B2
:1004D000DB7803F00F03FB613B68DB7803F010036C
:1004E000002B05D03B689B781A46FB691343FB61E0
:1004F0003B681B88DBB2002B44D07B681B687B61A8
:100500000023BB6138E0BB69012202FA03F3FB6000
:100510003B681B881A46FB6813403B613A69FB68DD
:100520009A4226D1BB699B00FB60FB680F2202FA4E
:1005300003F3BB60BB68DB437A6913407B61FB68F4
:10054000FA6902FA03F37A6913437B613B68DB784B
:10055000282B05D1BB6901229A407B685A6108E0CB
:100560003B68DB78482B04D1BB6901229A407B6849
:100570001A61BB690133BB61BB69072BC3D97B68B7
:100580007A691A603B681B88FF2B4AD97B685B68D5
:100590007B610023BB613EE0BB6908331A4601233F
:1005A0009340FB603B681B881A46FB6813403B6125
:1005B0003A69FB689A422BD1BB699B00FB60FB68E0
:1005C0000F2202FA03F3BB60BB68DB437A69134076
:1005D0007B61FB68FA6902FA03F37A6913437B6172
:1005E0003B68DB78282B07D1BB6908331A46012307
:1005F00003FA02F27B685A613B68DB78482B07D12B
:10060000BB6908331A46012303FA02F27B681A61B8
:10061000BB690133BB61BB69072BBDD97B687A69B4
:100620005A602437BD465DF8047B704780B500AF43
:10063000022001F0FDF8012000F02EFD002000F066
:10064000FDFC00204FF4601100F036FD012000F0A9
:1006500051FD00BF392000F0F5FE0346002BF9D014
:10066000022000F057FD002000F070FD002000F097
:1006700089FD002000F0A2FD002000F0BBFD80BD40
:10068000B0B588B000AFFFF7D1FF4FF47A7001F03A
:100690008BF82C482C494FF47A72FFF737FD01F0A4
:1006A00075FA01F087FA00F077F901F08FFA274B1D
:1006B00000221A6004E0254B1B680133234A1360B3
:1006C000224B1B68224A9342F5D9062001F0B8FB61
:1006D0000120502100F00CF90C2001F0B1FB01F0D9
:1006E00079F802461B4B1B68D31AB3F5FA7F28D35F
:1006F00001F070F80246174B1A60174C3B4618463B
:1007000001F046FC25463C460FCC0FC594E8070097
:1007100085E80700104B1B7E012B12D10F4B1B7875
:10072000184600F045F90E4B1B78184600F060F9AA
:10073000094B1A780B4B1B68104619460A4A00F001
:100740003DF8CCE780841E00FC0600200C0500204C
:10075000C3FD010008050020E00600204D05002033
:100760004C0500203C0000205005002080B58AB0D8
:1007700006AFF860B96011461A460B46FB71134686
:10078000BB71F879B9793A7E3B7F00900191029272
:100790000393FB680493BB68059305484FF4C87145
:1007A000044A054B00F00AFC1037BD4680BD00BF6F
:1007B00050050020C03100087C32000890B587B099
:1007C00002AF0346B9607A60FB733E484FF49671FE
:1007D00001F008FAB86802F077F803469AB23A4B8B
:1007E0001A80786802F070F803469AB2374B1A8084
:1007F000364B1B88364837491A4600F009FC344806
:1008000002F062F80346DAB2334B1A70334B5B687E
:10081000184602F059F803469AB22F4B1B789BB248
:1008200013449AB2284B1B8813449AB2274B1B8857
:1008300013449BB205339AB2294B1A80284B1A886D
:10084000284B1A80FA7B264B1B881E48264900F04D
:10085000DFFB1C4802F038F803469AB2214B1B8894
:1008600013449AB21F4B1A80164801F0AFFA15488C
:1008700002F02AF803469BB21248194601F0B2F979
:10088000164B5C68114B1B88013300937B68019306
:100890000C481649BA68234600F0BAFB094801F033
:1008A00095FA104B1B88184601F01CFA054802F017
:1008B0000BF803469BB20348194601F093F914372D
:1008C000BD4690BDB80B0020140500201605002081
:1008D000E80A002018340008180500202400002031
:1008E0001A0500201C0500201C34000830340008C4
:1008F00080B582B000AF03460A46FB711346BB8049
:10090000194B00221A6004E0174B1B680133164A8A
:100910001360154B1B68154A9342F5D9124B002200
:100920001A6004E0104B1B6801330F4A13600E4B32
:100930001B680E4A9342F5D90B4B00221A6004E063
:10094000094B1B680133084A1360074B1B68074AB1
:100950009342F5D9092001F073FA0B2001F070FAE7
:100960000837BD4680BD00BF100500201B1F0100D9
:1009700080B582B000AF1423FB710223BB714FF42A
:10098000E043BB803B1D03481946FFF78FFD083746
:10099000BD4680BD000C014080B500AFFFF7E8FF09
:1009A000024B4FF4E0421A6180BD00BF000C0140D1
:1009B00080B483B000AF0346FB71FB79002B06D0F7
:1009C000012B09D1094B4FF480525A6109E0074BC2
:1009D0004FF480521A6104E0044B4FF480521A61C4
:1009E00000BF0C37BD465DF8047B7047000C01402A
:1009F00080B582B000AF0346FB71FB79012B04D0B8
:100A0000022B05D0002B06D008E000F01DF808E00E
:100A100000F02AF805E000F007F802E000F004F822
:100A200000BF0837BD4680BD80B400AF054B4FF412
:100A300000521A61034B4FF480421A61BD465DF8C3
:100A4000047B7047000C014080B400AF054B4FF4AD
:100A500000521A61034B4FF480425A61BD465DF863
:100A6000047B7047000C014080B400AF054B4FF48D
:100A700000525A61034B4FF480425A61BD465DF803
:100A8000047B7047000C014080B483B000AF7860F5
:100A90000B46FB707B68FA781A70012318460C37F6
:100AA000BD465DF8047B704780B485B000AF7860C8
:100AB00039600023FB600AE07B685A1C7A603A6860
:100AC000511C396012781A70FB680133FB603B6877
:100AD0001B78002BF0D1FB6818461437BD465DF833
:100AE000047B704780B586B000AFF8607A603B60E9
:100AF0000B46FB7200237B617B68013B7B603B689C
:100B0000092B10D93B681E4AA2FB0323DB08FA7AA3
:100B1000F86811467A68FFF7E5FF78617B69FA6843
:100B20001344FB6011E00DE0FB7AF8681946FFF70B
:100B3000ABFFFB680133FB607B6901337B617B6842
:100B4000013B7B607B68002BEEDC39680C4BA3FB20
:100B50000123DA0813469B0013445B00CA1AD3B280
:100B60003033DBB2F8681946FFF78EFF02467B6927
:100B700013447B617B6918461837BD4680BD00BFB2
:100B8000CDCCCCCC90B587B000AFF8607A603B603C
:100B90000B46FB7200237B613B68002B03DA3B684A
:100BA0005B423B6101E03B683B617B68013B7B60F2
:100BB0003B69092B25D93B68002B0FDA3B69314A89
:100BC000A2FB0323DB085B421C46FB7AF86819464C
:100BD0007A682346FFF7D6FF78610DE03B69294A22
:100BE000A2FB0323DB081C46FB7AF86819467A68E7
:100BF0002346FFF7C7FF78617B69FA681344FB60FF
:100C000025E03B68002B02DA7B68013B7B600DE04E
:100C1000FB7AF8681946FFF737FFFB680133FB6082
:100C20007B6901337B617B68013B7B607B68002BC8
:100C3000EEDC3B68002B0ADAF8682D21FFF724FF71
:100C400002467B6913447B61FB680133FB603969B1
:100C50000C4BA3FB0123DA0813469B0013445B00F3
:100C6000CA1AD3B23033DBB2F8681946FFF70CFF6B
:100C700002467B6913447B617B6918461C37BD467D
:100C800090BD00BFCDCCCCCC90B589B002AFF860A0
:100C90007A601A460B46FB721346BB7200237B61D7
:100CA0007B68013B7B60BB6A1B09002B13D0BB6ACE
:100CB0001B09FA7ABC7A0093F86811467A682346D1
:100CC000FFF7E2FF02467B6913447B617B69FA68A8
:100CD0001344FB6011E00DE0FB7AF8681946FFF75A
:100CE000D3FEFB680133FB607B6901337B617B686A
:100CF000013B7B607B68002BEEDCBB6A03F00F03DB
:100D0000092B0BD8BB6ADBB203F00F03DBB2303325
:100D1000DBB2F8681946FFF7B7FE19E0BB7A002B83
:100D20000BD0BB6ADBB203F00F03DBB23733DBB2AD
:100D3000F8681946FFF7A8FE0AE0BB6ADBB203F0C9
:100D40000F03DBB25733DBB2F8681946FFF79CFE9E
:100D50007B6901337B617B6918461C37BD4690BDBA
:100D600090B58BB002AFF860B9607A603B60002349
:100D7000BB6100237B61FB68002B02D0FB68002273
:100D80001A70FCE07B681B78252B0BD0FB685A1C83
:100D9000FA607A68511C796012781A707B690133A5
:100DA0007B61ECE07B6801331B78252B0BD1FB6862
:100DB0005A1CFA6025221A707B6802337B607B69BB
:100DC00001337B61DBE02023FB770023BB777B686B
:100DD00001337B607B681B78302B04D13023FB7799
:100DE0007B6801337B600EE0BB7F1A4692001344A0
:100DF0005B00DAB27B681B781344DBB2303BBB7715
:100E00007B6801337B607B681B782F2B03D97B6861
:100E10001B78392BE8D9BA7F7B6913441A46BB6823
:100E20009A4205D9BB68DAB27B69DBB2D31ABB77C9
:100E30007B681B78583B202B00F2938001A252F86C
:100E400023F000BF1B0F0008630F0008630F0008AA
:100E5000630F0008630F0008630F0008630F0008AA
:100E6000630F0008630F0008630F0008630F00089A
:100E70004D0F0008C90E0008630F0008630F00083B
:100E8000630F0008630F0008C90E0008630F000815
:100E9000630F0008630F0008630F0008630F00086A
:100EA000630F0008630F0008630F0008630F00085A
:100EB000390F0008630F0008E30E0008630F0008F5
:100EC000630F0008FD0E0008BC7F3B681A1D3A60E6
:100ED0001B68FA7FF86811462246FFF753FEB86197
:100EE00042E0BC7F3B681A1D3A601B68FA7FF868D5
:100EF00011462246FFF7F6FDB86135E0BC7F3B683E
:100F00001A1D3A601B68FA7F0093F8681146224662
:100F10000023FFF7B9FEB86126E0BC7F3B681A1DCD
:100F20003A601B68FA7F0093F86811462246012355
:100F3000FFF7AAFEB86117E03B681A1D3A601B680C
:100F4000F8681946FFF7B0FDB8610DE03B681A1D5F
:100F50003A601B68DBB2F8681946FFF795FDB86187
:100F600002E04FF0FF3325E07B6801337B60BB6913
:100F7000FA681344FB607A69BB6913447B617B6840
:100F80001B78002B04D07A69BB689A42FFF4FAAE52
:100F90007A69BB689A4203D2FB6800221A7008E0A3
:100FA000FB68013BFB60FB6800221A707B69013B18
:100FB0007B617B6918462437BD4690BD0CB480B573
:100FC00084B000AF7860396007F11C03BB607868BB
:100FD0003968BA69BB68FFF7C3FEF860FB6818465A
:100FE0001037BD46BDE8804002B0704780B584B080
:100FF00000AFF860B9607A60F8686421BA687B680D
:10100000FFF7AEFE034618461037BD4680BD00BF51
:101010000EB480B585B000AF786007F12003BB60E7
:101020007868F969BA68FFF7E1FFF860FB6818466D
:101030001437BD46BDE8804003B0704780B483B02C
:1010400000AF7860134A134B1B6823F4803313609E
:10105000104A104B1B6823F4802313607B68B3F5A0
:10106000803F03D0B3F5802F07D00DE0094A094B2C
:101070001B6843F48033136006E0064A054B1B6887
:1010800043F4A023136000BF0C37BD465DF8047B1A
:10109000704700BF0010024080B483B000AF034629
:1010A000FB71044AFB7913600C37BD465DF8047B85
:1010B000704700BF0000424280B485B000AF786046
:1010C00039600023FB600A4B5B68FB60FB6823F41C
:1010D0007C13FB607A683B681343FA681343FB6038
:1010E000034AFB6853601437BD465DF8047B7047C4
:1010F0000010024080B483B000AF0346FB71044A85
:10110000FB7913600C37BD465DF8047B704700BF68
:101110006000424280B485B000AF78600023FB607D
:10112000094B5B68FB60FB6823F00303FB60FA6814
:101130007B681343FB60044AFB6853601437BD4669
:101140005DF8047B704700BF0010024080B485B09A
:1011500000AF78600023FB60094B5B68FB60FB68B5
:1011600023F0F003FB60FA687B681343FB60044ADA
:10117000FB6853601437BD465DF8047B704700BFC1
:101180000010024080B485B000AF78600023FB609F
:10119000094B5B68FB60FB6823F4E063FB60FA6863
:1011A0007B681343FB60044AFB6853601437BD46F9
:1011B0005DF8047B704700BF0010024080B485B02A
:1011C00000AF78600023FB60094B5B68FB60FB6845
:1011D00023F46053FB607B68DB00FA681343FB6019
:1011E000034AFB6853601437BD465DF8047B7047C3
:1011F0000010024080B485B000AF78600023FB602F
:10120000094B5B68FB60FB6823F44043FB60FA68B2
:101210007B681343FB60044AFB6853601437BD4688
:101220005DF8047B704700BF0010024080B487B0B7
:1012300000AF786000237B6100233B610023FB60EB
:101240000023BB604D4B5B6803F00C037B617B6943
:10125000042B07D0082B09D0002B34D17B68484AD7
:101260001A6034E07B68464A1A6030E0434B5B68A2
:1012700003F470133B61414B5B6803F48033FB6004
:101280003B699B0C02333B61FB68002B06D13B6939
:101290003C4A02FB03F27B681A6013E0374B5B6841
:1012A00003F40033002B06D03B69364A02FB03F2FD
:1012B0007B681A6006E03B69314A02FB03F27B68F7
:1012C0001A6004E003E07B682D4A1A6000BF2B4BD4
:1012D0005B6803F0F0037B617B691B097B612A4A31
:1012E0007B6913441B78DBB2BB607B681A68BB6800
:1012F000DA407B685A60214B5B6803F4E0637B61F2
:101300007B691B0A7B61204A7B6913441B78DBB233
:10131000BB607B685A68BB68DA407B689A60174B91
:101320005B6803F460537B617B69DB0A7B61164A6F
:101330007B6913441B78DBB2BB607B685A68BB686F
:10134000DA407B68DA600D4B5B6803F440437B61F5
:101350007B699B0B7B610D4A7B6913441B78DBB275
:10136000BB607B68DA68BB68B2FBF3F27B681A612A
:101370001C37BD465DF8047B704700BF001002407B
:1013800000127A0000093D00780400208804002043
:1013900080B483B000AF78600B46FB70FB78002B05
:1013A00006D00949084B5A697B6813434B6106E034
:1013B0000549054B5A697B68DB4313404B610C3789
:1013C000BD465DF8047B70470010024080B483B0D6
:1013D00000AF78600B46FB70FB78002B06D0094904
:1013E000084B9A697B6813438B6106E00549054BFE
:1013F0009A697B68DB4313408B610C37BD465DF80F
:10140000047B70470010024080B483B000AF786066
:101410000B46FB70FB78002B06D00949084BDA69B4
:101420007B681343CB6106E00549054BDA697B68AD
:10143000DB431340CB610C37BD465DF8047B70473E
:101440000010024080B487B000AF0346FB71002358
:10145000FB6000237B610023FB74FB795B09DBB23B
:10146000FB60FB68012B03D1124B1B687B6109E019
:10147000FB68022B03D10F4B1B6A7B6102E00D4B13
:101480005B6A7B61FB7903F01F03FB60FB687A6991
:1014900022FA03F303F00103002B02D00123FB74B3
:1014A00001E00023FB74FB7C18461C37BD465DF849
:1014B000047B70470010024080B58CB000AF7860AC
:1014C00039600023FB620023BB6200237B620023A0
:1014D0003B620023FB617B68FB617B681B8A9BB2DC
:1014E000FB62FA6A4CF6FF731340FB623B68DB88D1
:1014F0001A46FB6A1343FB62FB6A9AB27B681A8244
:101500007B689B899BB2FB62FA6A4EF6F313134029
:10151000FB623B689A883B681B8913439AB23B681D
:101520005B8913439BB21A46FB6A1343FB62FB6A57
:101530009AB27B689A817B689B8A9BB2FB62FA6A4B
:101540004FF6FF431340FB623B689B891A46FB6AD8
:101550001343FB62FB6A9AB27B689A8207F1080325
:101560001846FFF763FEFB692E4A934202D17B695E
:10157000BB6201E03B69BB627B689B899BB29BB20B
:101580001BB2002B0CDABA6A13469B0013449A0074
:101590001A443B681B685B00B2FBF3F37B620BE011
:1015A000BA6A13469B0013449A001A443B681B68AE
:1015B0009B00B2FBF3F37B627B6A1B4AA2FB032313
:1015C0005B091B01FB62FB6A1B09642202FB03F33C
:1015D0007A6AD31A3B627B689B899BB29BB21BB22F
:1015E000002B0CDA3B6ADB0032330F4AA2FB0323E9
:1015F0005B0903F00703FA6A1343FB620BE03B6AE3
:101600001B013233084AA2FB03235B0903F00F03DB
:10161000FA6A1343FB62FB6A9AB27B681A8130371D
:10162000BD4680BD003801401F85EB5180B483B0BA
:1016300000AF78600B46FB70FB78002B08D07B680E
:101640009B899BB243F400539AB27B689A8107E06E
:101650007B689B899BB223F400539AB27B689A8182
:101660000C37BD465DF8047B704700BF80B483B083
:1016700000AF78600B467B8013467B707B78002B35
:1016800008D07B689B8A9AB27B8813439AB27B68A6
:101690009A8209E07B689B8A9AB27B88DB439BB283
:1016A00013409AB27B689A820C37BD465DF8047B82
:1016B000704700BF80B483B000AF78600B467B807A
:1016C0007B88C3F308039AB27B689A800C37BD46C7
:1016D0005DF8047B704700BF80B485B000AF7860D0
:1016E0000B467B800023FB737B681B889AB27B8848
:1016F00013409BB2002B02D00123FB7301E00023B7
:10170000FB73FB7B18461437BD465DF8047B7047BE
:1017100080B483B000AF03463960FB7197F907309E
:10172000002B0BDA0D49FB7903F00F03043B3A68F9
:10173000D2B21201D2B20B441A7609E0084997F9E5
:1017400007303A68D2B21201D2B20B4483F80023B8
:101750000C37BD465DF8047B704700BF00ED00E02C
:1017600000E100E080B582B000AF78607B68B3F143
:10177000807F01D3012311E00A4A7B6823F07F4375
:10178000013B53604FF0FF300F21FFF7C1FF054BC6
:1017900000229A60034B07221A600023184608377C
:1017A000BD4680BD10E000E080B582B000AF78603B
:1017B000074B1A687B68B2FBF3F31846FFF7D2FFBA
:1017C0004FF0FF300021FFF7A3FF0837BD4680BD73
:1017D0000000002080B400AF034B1B681846BD46D4
:1017E0005DF8047B704700BF2005002080B400AF87
:1017F000044B1B680133034A1360BD465DF8047B4C
:10180000704700BF20050020ABBE01E000207047FC
:10181000002A00D010600120704706980188034A12
:10182000914202D1043006907047FEE7ABBE000043
:1018300080B485B000AF78600023FB60094B1B6863
:10184000FB60FB6803F03803FB60FA687B681343B6
:10185000FB60044AFB6813601437BD465DF8047BE7
:10186000704700BF0020024080B483B000AF7860B2
:101870007B681A684FF6FE7313407A6813607B68C2
:1018800000221A607B6800225A607B6800229A60FE
:101890007B680022DA607B68434A934206D1434A60
:1018A000424B5B6843F00F03536077E07B68404A2C
:1018B000934206D13D4A3D4B5B6843F0F0035360D1
:1018C0006CE07B683B4A934206D1384A374B5B68F1
:1018D00043F47063536061E07B68374A934206D1FA
:1018E000324A324B5B6843F47043536056E07B6886
:1018F000324A934206D12D4A2C4B5B6843F4702345
:1019000053604BE07B682E4A934206D1274A274B0F
:101910005B6843F47003536040E07B68294A93425C
:1019200006D1224A214B5B6843F07063536035E077
:101930007B68254A934206D1244A244B5B6843F0D6
:101940000F0353602AE07B68214A934206D11F4A65
:101950001E4B5B6843F0F00353601FE07B681D4A39
:10196000934206D1194A194B5B6843F47063536084
:1019700014E07B68184A934206D1144A134B5B6803
:1019800043F47043536009E07B68144A934205D1E5
:101990000E4A0E4B5B6843F4702353600C37BD4610
:1019A0005DF8047B704700BF080002400000024061
:1019B0001C00024030000240440002405800024037
:1019C0006C00024080000240080402400004024013
:1019D0001C04024030040240440402405804024007
:1019E00080B485B000AF786039600023FB607B680D
:1019F0001B68FB60FB6823F4FF4323F07003FB606C
:101A00003B689A683B681B6A1A433B681B691A4328
:101A10003B685B691A433B689B691A433B68DB6917
:101A20001A433B685B6A1A433B689B6A1343FA6834
:101A30001343FB607B68FA681A603B68DA687B686E
:101A40005A603B681A687B689A603B685A687B6892
:101A5000DA601437BD465DF8047B704780B483B00C
:101A600000AF78600B46FB70FB78002B06D07B68DC
:101A70001B6843F001027B681A6006E07B681A6805
:101A80004FF6FE7313407A6813600C37BD465DF85D
:101A9000047B704780B483B000AF78607B6803F04C
:101AA0008053002B03D0064A7B68536002E0054A4E
:101AB0007B6853600C37BD465DF8047B704700BF00
:101AC000000402400000024080B487B000AF78609C
:101AD00000237B6100233B610F23FB607B68DB7885
:101AE000002B3AD0274BDB68DB4303F4E0631B0A8F
:101AF0007B617B69C3F104033B617B69FA6822FA6D
:101B000003F3FB607B685B781A463B6902FA03F3D8
:101B10007B617B689B781A46FB6813407A691343A4
:101B20007B617B691B017B61174A7B681B78796944
:101B3000C9B213440A4683F80023134A7B681B7812
:101B40005B09DBB218467B681B7803F01F03012199
:101B500001FA03F342F820300FE00B497B681B7851
:101B60005B09DBB218467B681B7803F01F03012278
:101B70009A4000F1200341F823201C37BD465DF850
:101B8000047B704700ED00E000E100E080B582B02A
:101B900000AF0323BB711023FB710123BB803B1DEE
:101BA00003481946FEF782FC0837BD4680BD00BFDA
:101BB000000C014080B400AF034B01225A61BD46C6
:101BC0005DF8047B704700BF000C014080B400AF9B
:101BD000034B01221A61BD465DF8047B704700BFCC
:101BE000000C014080B582B000AF78600B467B806E
:101BF0007B88786800211A4600F054FD0837BD46FE
:101C000080BD00BF80B500AFFFF7E4FD0246034B87
:101C10001A60034B01221A7080BD00BF2805002006
:101C20002405002090B583B000AF78600B467B8020
:101C300038E07B8824484FF47A717A6800F054FCCD
:101C400003461A46214B1A60204B1B681B78002B59
:101C500028D01E4B1C681D4B1B68184600F034FE34
:101C60000346204619461A4A042300F03DFC034669
:101C70001A46184B1A60174B1B68002B12D0134BD7
:101C80001C68124B1B68184600F01EFE03469BB2F0
:101C900020461946FFF7A6FF0F4B01221A700F4B83
:101CA00000221A700D4B1B78DBB2012B09D1FFF714
:101CB00091FD02460A4B1B68D31A41F26F729342A0
:101CC000B7D90C37BD4690BDFC060020401100205E
:101CD000A835000844110020250500202405002017
:101CE0002805002080B582B000AF0346FB8049E0A4
:101CF0002D484FF47A712D4A0A2300F0F5FB034674
:101D00001A462B4B1A602A4B1B681B78002B39D0C4
:101D100029E0254800F0D8FD034623481946254A06
:101D2000092300F0E1FB03461A46234B1A60224BBD
:101D30001B68002B17D01E4B1B681A461E4B1B68D6
:101D4000D31A1A461D4B1A60194B1A68FB880933BF
:101D50009BB210461946FFF745FF194B01221A7036
:101D6000184B00221A70174B1B78DBB2012B09D1DC
:101D7000FFF730FD0246144B1B68D31A41F26F7215
:101D80009342C6D90F4B1B78DBB2012B09D1FFF769
:101D900021FD02460C4B1B68D31A41F26F7293422D
:101DA000A6D90837BD4680BDFC060020B035000826
:101DB00040110020BC3500084411002030050020EF
:101DC00025050020240500202805002080B582B0CC
:101DD00000AF786010E000BF18488021FFF77CFC5E
:101DE0000346002BF8D07B685A1C7A601B789BB2A4
:101DF00012481946FFF75EFC7B681B78002BEAD17E
:101E000000BF0E488021FFF767FC0346002BF8D087
:101E10000A480D21FFF74EFC00BF08488021FFF75C
:101E20005BFC0346002BF8D0FFF7ECFE03480A21C9
:101E3000FFF740FC0837BD4680BD00BF00480040AA
:101E400090B585B000AF0346FB71FB79234A52F889
:101E50002330FB6010E000BF21488021FFF73CFCED
:101E60000346002BF8D0FB685A1CFA601B789BB223
:101E70001B481946FFF71EFCFB681B78002BEAD1B4
:101E8000FFF7C0FE00BF16488021FFF725FC034680
:101E9000002BF8D012480D21FFF70CFC00BF1048B2
:101EA0008021FFF719FC0346002BF8D00C480A21CB
:101EB000FFF700FCFB79094A52F82340FB79074AF7
:101EC00052F82330184600F0FFFC03469BB2204630
:101ED0001946FFF7A7FE1437BD4690BD90040020B9
:101EE00000480040B0B58AB000AF7860396038680B
:101EF000204900F07FFF00201E4900F07BFF0246D2
:101F00001D4B1A601C4B1B68184600F093F90346E2
:101F1000DBB23B730020194900F06CFF03463B61C4
:101F20000020174900F066FF03467B61002014493A
:101F300000F060FF0346BB610020124900F05AFF29
:101F40000020114900F056FF0346FB6100200F49B5
:101F500000F050FF03463B627B681D4607F10C040E
:101F60000FCC0FC594E8070085E80700786828378C
:101F7000BD46B0BDDC350008500D0020E03500083E
:101F8000E4350008E8350008EC350008F0350008B5
:101F9000B0B58CB002AF78628A4B00221A76FFF798
:101FA00019FC0246884B1A6088484FF47A71884AB7
:101FB000042300F099FA03461A46864B1A60854BB3
:101FC0001B68002B00F0EF80824B1B68824819468B
:101FD00000F01CFC81480021FFF740FD7D4B1C6890
:101FE0007C4B1B68184600F06FFC03469BB22046F2
:101FF0001946FFF7F7FD75484FF47A71FEF704F9BB
:10200000704C3B4618467449FFF76CFF25463C462A
:102010000FCC0FC594E8070085E80700694B9B6863
:1020200018466F4900F0D6FD0346002B00F0BB8038
:10203000644BDB6818466B4900F0CCFD0346002B6F
:1020400000F0B1805F4BDB6818463F2100F078FB61
:102050000346002B45D05B4BDB681846624900F015
:10206000C9FE0246614B1A60604B1B6818463D2151
:1020700000F066FB0346002B10D05C4B1B68184633
:102080005B4900F0B7FE02465A4B1A6000205A49DD
:1020900000F0B0FE0246594B1A601FE00020544980
:1020A00000F0A8FE0246534B1A600020544900F08D
:1020B000A1FE0246514B1A6000204D4900F09AFEE5
:1020C0000246504B1A604F4B1B68002B06D0002075
:1020D0004B4900F08FFE02464B4B1A60394B0122F0
:1020E0001A76464B1B68184600F0A4F80346DAB28D
:1020F000464B1A70454B1B78002B03D0434B1B7883
:10210000012B03D1414B1A78414B1A703E4B1B688F
:10211000002B2FD03C4B1B68184600F08BF8034671
:10212000DAB23C4B1A703B4B1B78012B0ED0022BC2
:1021300002D0002B14D01DE0374B01221A70374B10
:1021400001221A70364B02221A7013E0324B012220
:102150001A70324B00221A70314B01221A7009E0BA
:102160002D4B00221A702D4B00221A702C4B00228E
:102170001A7000BF264B1B781D46274B1B781A464A
:10218000264B1B78D418274B1B781A46264B1B78F6
:1021900000920193254826492A462346FEF7E6FA8F
:1021A000084B01221A767B6A064A1C4615460FCD5B
:1021B0000FC495E8070084E80700786A2837BD4611
:1021C000B0BD00BFE006002008050020FC0600208E
:1021D0006C3500084C110020540D002030000240E6
:1021E000F4350008FC350008043600083C0D0020DA
:1021F00008360008E80C00200C360008380D0020D6
:10220000103600083C110020340D00208C04002002
:102210004D0500208D040020E40A00204E0500201A
:102220004C050020E60A0020E50A002014360008CC
:102230002436000800210A2200F0A4BE2DE9F04156
:102240004FF0010E744600254FF0FF3663198B42A4
:1022500000EB06070DD23F5D10F803C0BC452DD240
:102260001D460124C6EB030E63198B4200EB0607E3
:10227000F1D34FF001084446C2F800E000254FF0CA
:10228000FF376319994200EB070E0ED91EF804E0E0
:1022900010F803C0F44518D91D460124C7EB030804
:1022A0006319994200EB070EF0D80137701C874282
:1022B00024BF3846C2F80080BDE8F0810CD04FF052
:1022C000010E2E4674467544C0E709D04FF0010850
:1022D0002F4644464544D4E7744505D00134B5E75C
:1022E000444504D00134CCE71D460124AEE71D4629
:1022F0000124C6E72DE9F04FADF22C4D904607467C
:102300008B461046194609AA1E46FFF797FF8246DC
:1023100009AA0DF2244142F8046F8A42FBD1002E33
:1023200000F0DB80741E2146424608EB06050DF1E5
:10233000280912F8013BAA4249F8231001F1FF31A4
:10234000F7D1099940464144524600F071FE0028F9
:102350006DD1099B0AF1FF320393F31A049308EB42
:102360000203C6EB0B010693CAF101030546059271
:1023700001910793CDF808A00AE020B1049A0399CF
:102380008B4238BF13461D44019B0020AB4246D30D
:1023900007EB050B1BF8043059F82330002BECD168
:1023A000029B834238BF0346A34212D25A19BE5C35
:1023B00018F803E03A44B64508EB030106D033E0D1
:1023C00011F801EF12F8016FB6452DD10133A34288
:1023D000F6D3029B0599834298BF194616D9059BEF
:1023E000069EEA18BB5C36783A449E427AD1069B38
:1023F00008EB000A06E013F801ED12F8016DB6458E
:1024000004D16146534501F1FF3CF4D101308842CB
:102410005ED8039B04981D44019BAB42B8D20020B8
:102420000DF22C4DBDE8F08F079A1544ABE7CAEBCF
:102430000601514538BF51460AF1FF330193434429
:1024400001310293CAF10103C6EB0B0204914FF074
:10245000000C08EB0A0B039307EB0C00035D59F823
:1024600023306BBBA24515D20CEB0A017B5C9BF8B9
:10247000005039449D4218BF534625D15D4653460E
:1024800005E015F801EF11F8016FB6451CD10133D5
:10249000A342F6D3019B0133C2D0019B029E0CEBF9
:1024A00003017B5C357839449D4208D1334643456E
:1024B000B6D013F8016D11F8015DAE42F7D0049B60
:1024C0009C446245C8D2AAE703998C449C44F8E72F
:1024D00058460DF22C4DBDE8F08F4FF0FF340DF152
:1024E00028092EE7029991E72DE9F04F814689B03E
:1024F000002B7CD08B428B461C466FD81F2B054689
:1025000070D8117890465A4600F048FD8146002860
:1025100064D0012C6BD02A1A02EB0B05AC425DD8BB
:10252000214607AA4046FFF789FE079983460246DF
:102530004144404600F07CFD002862D18446079B60
:102540000BF1FF3A0393E31A049308EB0A032A1BE7
:102550000593CBF1010301920293DC45634638BF3A
:102560005B469C4213D91A1819F8025018F80360F8
:102570004A44AE4208EB030106D03CE011F8016F7B
:1025800012F8015FAE4236D101339C42F6D8E345E2
:10259000514640F28480059E00EB0A0219F8023091
:1025A00035784A449D427AD1334608EB0C0E06E05A
:1025B00013F8017D12F8016DB74204D12946734525
:1025C00001F1FF35F4D10CF1010C8C4559D8039B76
:1025D000DDF810C01844019B8342BED2002009B030
:1025E000BDE8F08FFFF786FE09B0BDE8F08F4846E2
:1025F00009B0BDE8F08F029A4FF0000C1044184467
:10260000E9E7CBEB04035B4538BF5B4601330BF1D5
:10261000FF3C02930793CBF101032A1B08EB0C0A42
:10262000002008EB0B0E01935C4514D900EB0B0165
:1026300019F801309EF8005049449D4225D1754655
:102640005B4605E015F8017F11F8016FB7421DD117
:1026500001339C42F6D8BCF1FF3F12D000EB0C01D5
:1026600019F801309AF8005049449D4214D153465C
:1026700005E013F8016D11F8015DAE420CD1434540
:10268000F7D1484409B0BDE8F08F5B460199084492
:1026900018448242C8D2A1E7029B1844F9E7594680
:1026A00091E700BF70B4840746D0541E002A41D081
:1026B000CDB2034602E0621EE4B3144603F8015BA8
:1026C0009A07F8D1032C2ED9CDB245EA05250F2C57
:1026D00045EA054519D9264603F11002103E0F2E92
:1026E00042F8105C42F80C5C42F8085C42F8045C6A
:1026F00002F11002F2D8A4F1100222F00F0204F04D
:102700000F041032032C13440DD91E462246043AFE
:10271000032A46F8045BFAD8221F22F0030204328F
:10272000134404F003042CB1C9B21C4403F8011B88
:10273000A342FBD170BC704714460346C2E700BFFA
:10274000C9B270B4002933D0850710D00378002BAC
:1027500059D0994218BF431C06D127E013F8012B2A
:10276000002A4DD0914221D09A071846F6D141EA6D
:102770000126036846EA064601E050F8043F83EA72
:102780000605A5F10134A3F1013224EA050422EA89
:102790000303234313F0803FEFD0037823B932E0E3
:1027A00010F8013F002B2ED09942F9D170BC704730
:1027B00084070BD00378002BF8D0431C03E0027889
:1027C0000133002AF2D099071846F8D10268A2F125
:1027D000013323EA020313F0803F08D150F8042F9D
:1027E000A2F1013323EA020313F0803FF6D003780D
:1027F000002BDBD010F8013F002BFBD170BC7047E1
:10280000104670BC7047184670BC704780EA0102E1
:10281000844612F0030F4FD111F0030F32D14DF85F
:10282000044D11F0040F51F8043B0BD0A3F1013219
:102830009A4312F0803F04BF4CF8043B51F8043B2C
:1028400016D100BF51F8044BA3F101329A4312F0A4
:10285000803FA4F101320BD14CF8043BA24312F0AB
:10286000803F04BF51F8043B4CF8044BEAD02346A8
:102870000CF8013B13F0FF0F4FEA3323F8D15DF85A
:10288000044B704711F0010F06D011F8012B0CF822
:10289000012B002A08BF704711F0020FBFD031F89A
:1028A000022B12F0FF0F16BF2CF8022B8CF8002021
:1028B00012F47F4FB3D1704711F8012B0CF8012BA4
:1028C000002AF9D1704700BF20F0030110F0030087
:1028D000C0F1000051F8043B00F1040C4FEACC0CAD
:1028E0006FF000021CBF22FA0CF213434FF0010CF0
:1028F0004CEA0C2C4CEA0C4CA3EB0C0222EA03022F
:1029000012EACC1204BF51F8043B0430F4D0C2F1F7
:10291000000102EA0102B2FA82F2C2F11F0200EBE8
:10292000D20070472DE9F0414FF0010E74460025AA
:102930004FF0FF3663198B4200EB06070DD23F5D67
:1029400010F803C0BC452DD21D460124C6EB030E72
:1029500063198B4200EB0607F1D34FF001084446A0
:10296000C2F800E000254FF0FF376319994200EBF1
:10297000070E0ED91EF804E010F803C0F44518D96C
:102980001D460124C7EB03086319994200EB070EAB
:10299000F0D80137701C874224BF3846C2F8008047
:1029A000BDE8F0810CD04FF0010E2E467446754400
:1029B000C0E709D04FF001082F4644464544D4E70C
:1029C000744505D00134B5E7444504D00134CCE763
:1029D0001D460124AEE71D460124C6E72DE9F04F50
:1029E000ADF2144D164605468B461046194603AA0D
:1029F0001C46FFF797FF804603AB0DF20C4243F8ED
:102A0000044F9342FBD15CB13246631E371904A8D0
:102A100012F8011BBA4240F8213003F1FF33F7D11D
:102A2000039930463144424600F002FB00286DD144
:102A300008F1FF330093F318824601932346814641
:102A4000544658469A4609EB0A073A1A0021284488
:102A500000F0A4FA002840F0AC80002F00F0A9801C
:102A6000EB1913F8012C04AB53F822304BB124B10D
:102A7000039A934201D2C2EB0A03994400243846D8
:102A8000E1E74445234638BF43460AF1FF3E73451C
:102A900013D203EB0902A85C16F803C02A4484454C
:102AA00006EB030106D02DE011F801CF12F8010F5B
:102AB000844527D101337345F6D34445009980F00E
:102AC0008780009B019809EB0302AB5C00782A44E5
:102AD00098427DD1019B06EB040B06E013F801ED53
:102AE00012F8010D864504D161465B4501F1FF3CBA
:102AF000F4D101348C4256D8039C3846A144C4EB2F
:102B00000A04A0E7C8F101029144B6E7C8EB040348
:102B1000434538BF434608F1FF3701330393F319A8
:102B20005846A246C34698464FF0000909EB0A04EE
:102B3000221A0021284400F031FAD0BBCCB32B1963
:102B400013F8012C04AB53F82230C3BB0AF1FF3059
:102B5000834514D209EB0B02AB5C16F80BE02A4458
:102B60009E4506EB0B015B4606D02BE011F801CF2A
:102B700012F801EFF44525D101338342F6D37B1CD3
:102B800011D009EB0702AB5C98F800102A44994277
:102B900014D1434605E013F8010D12F8011D8842D7
:102BA0000CD1B342F7D105EB09000DF2144DBDE88D
:102BB000F08F00200DF2144DBDE8F08F039B994477
:102BC0002046B3E7CBF10102914499442046ADE79A
:102BD00041468EE70278002A00F003812DE9F04F8C
:102BE00091F8008085B04346B8F1000F15D08446B7
:102BF00001F1010E012402E01EF8013B63B19A428B
:102C000014BF002404F001041CF8012F7746002AA9
:102C1000F2D19EF800301BB934B105B0BDE8F08F99
:102C2000002005B0BDE8F08F0E4605464146013054
:102C3000FFF786FDBC1B07460028F1D0012CECD025
:102C40002819874294BFC7EB000B4FF0010B1F2CD4
:102C500008D93846594632462346FFF7BFFE05B02D
:102C6000BDE8F08F214603AA3046FFF75BFE0399CB
:102C7000804602463144304600F0DAF9002858D147
:102C800081460546B246584608F1FF330193F318D2
:102C900000932E19321A0021384400F07FF90028E1
:102CA000BED1002EBCD0C1454B4638BF43469C42E6
:102CB00012D95A19B95C1AF803003A4488420AEB4F
:102CC000030E06D02DE01EF8010F12F8011F8842F6
:102CD00027D101339C42F6D8019BC845194640F2E2
:102CE00083800098EA18BB5C00783A4498427BD114
:102CF000009B0AEB090B06E013F801CD12F801ED79
:102D0000F44504D101465B4501F1FF30F4D109F1EE
:102D1000010989456AD8039B30461D44C3EB040969
:102D2000B7E7C8F1010215441D444FF000093046D1
:102D3000AFE7C8EB0403434508F1FF3238BF434611
:102D400006EB02095846CB469146013303934FF0F8
:102D5000000A0AEB04052A1A0021384400F01EF983
:102D600000287FF45DAF002D3FF45AAF444514D9DD
:102D70000AEB0802BB5C16F808003A44984206EBDE
:102D80000801434606D022E011F801EF12F8010FC6
:102D900086451CD101339C42F6D8B9F1FF3F11D0D2
:102DA0000AEB0902BB5C9BF800103A44994214D12B
:102DB0005B4605E013F8010D12F8011D88420CD1A5
:102DC000B342F7D107EB0A0005B0BDE8F08FC8F1B8
:102DD000010292449A442846BBE7039B28469A4442
:102DE000B7E70B7823B97047414690E7781914E7A5
:102DF00000207047024A012312685C3200F002B8DA
:102E000070040020F0B420B307460D4617F8016B9C
:102E100001E0A64216D015F8014B002CF9D1EEB115
:102E20003E460C4616F8015B00E073B114F8013B16
:102E3000AB42FAD15DB100233B70166006463046C6
:102E4000F0BC704763B13846DEE73746E8E72E4608
:102E5000F3E710680028D7D10646F0E71660EEE7E2
:102E6000176006460370EAE72DE9F04F444C8346AD
:102E70000E46D4F800E000E02646344614F8015B24
:102E80000EEB0500407800F0080000F0FF08002875
:102E9000F2D12D2D4BD02B2D04BF7578B41C1BB156
:102EA000102B60D09A4603E0302D54D00A239A4666
:102EB000B8F1000F14BF4FF000406FF00040B0FBBE
:102EC000FAF90027BC460AFB19000CE0303DAB4282
:102ED00019DD7E1C05D0CC4524D821D00AFB0C5C22
:102EE000012714F8015B0EEB0506767816F0040F47
:102EF000ECD116F0030606D0012E0CBF372657265C
:102F0000AD1BAB42E5DC7B1C16D0C8F100008CEA9F
:102F1000000040444AB107B1611E1160BDE8F08F66
:102F20008542DBDD4FF0FF37DBE7BDE8F08FB41CF7
:102F300075784FF00108B2E7B8F1000F4FF02203A7
:102F400014BF4FF000406FF00040CBF80030002A73
:102F5000E2D1BDE8F08F237803F0DF03582B09D0CE
:102F600008239A46A4E7302D9CD1207800F0DF009A
:102F7000582897D14FF0100A65785346023497E7E6
:102F80000005002030B40D46034C134601462A4686
:102F9000206830BCFFF768BF70040020830770B45E
:102FA000C9B240D0541E002A3FD003788B4218BFCC
:102FB000431C05D11CE0ECB10278013C8A4217D0D9
:102FC00013F0030F184603F10103F4D1032C14D8B6
:102FD00084B103788B420BD00519431C02E00278C0
:102FE0008A4205D0AB42184603F10103F7D1002015
:102FF00070BC7047204670BC7047024641EA01260B
:1030000046EA0646136810467340A3F1013525EAE7
:10301000030313F0803F02F10402D9D1043C032CD6
:103020001046EFD8D4E71446D0E71046E0E700BFDB
:10303000032A70B426D940EA01039B0711D0047813
:103040000D78AC4222D10244431C05E013F8014B39
:1030500011F8015FAC4219D19342F7D1002070BC46
:1030600070470C4603461E6825681846AE42214646
:1030700003F1040304F1040404D1043A032A1846BA
:103080002146F0D8002ADAD11046E8E7601B70BC70
:10309000704700BF47455400504F53540000000094
:1030A0005055540044454C4554450000436F6E74E0
:1030B000656E742D547970653A200000436F6E740C
:1030C000656E742D4C656E6774683A2000000000D0
:1030D0004163636570743A200000000041636365DA
:1030E00070742D456E636F64696E673A200000004E
:1030F000486F73743A200000557365722D416765FF
:103100006E743A200000000020485454502F312E95
:103110003120323030204F4B0D0A436F6E74656E94
:10312000742D547970653A206170706C69636174B4
:10313000696F6E2F6A736F6E0D0A436F6E6E6563F3
:1031400074696F6E3A20636C6F73650D0A0000003E
:103150007B224944223A2264696D3031222C225369
:103160007461747573223A7B2243757272656E7452
:1031700049505F57414E223A22302E302E302E30A9
:10318000222C2263757272656E7469705F6C616E59
:10319000223A223139322E3136382E342E31222C39
:1031A0002273656C665F636865636B5F72657375D8
:1031B0006C74223A224F4B227D7D200000000000DB
:1031C0007B224944223A222573222C224E6F6465C9
:1031D000537461747573223A7B2270756D705374E9
:1031E000617465223A222564222C2266616E537432
:1031F000617465223A222564222C226375727265FD
:103200006E7454656D70223A222564222C226375F7
:103210007272656E7448756D6964223A2225642263
:103220002C7D2C2247656E6572616C5374617475D8
:1032300073223A7B2243757272656E7449505F57F0
:10324000414E223A222573222C2263757272656EDA
:103250007449505F4C414E223A222573222C22732E
:10326000656C665F636865636B5F726573756C74CC
:10327000223A224F4B227D7D200000005357414DC2
:10328000505F52454C4159007B224944223A222545
:1032900073222C22537461747573223A7B22257336
:1032A000223A222573222C2243757272656E74496C
:1032B000505F57414E223A222573222C22637572A9
:1032C00072656E7449505F4C414E223A222573223A
:1032D0002C2273656C665F636865636B5F726573F0
:1032E000756C74223A224F4B227D7D200000000035
:1032F00020203C68746D6C3E3C686561643E3C6DAA
:1033000065746120636861727365743D225554462B
:103310002D38222F3E3C6D657461206E616D653DD8
:103320002276696577706F72742220636F6E7465A0
:103330006E743D2277696474683D6465766963657F
:103340002D77696474682C20696E697469616C2DCD
:103350007363616C653D312E30223E3C7469746C40
:10336000653E44696D6D696E67204D6F64756C656F
:1033700020436F6E74726F6C20506167653C2F74D0
:1033800069746C653E3C2F686561643E3C666F7293
:103390006D20616374696F6E3D2264696D6D696E45
:1033A000675F666F726D2E617370223E44696D6D4A
:1033B000696E672056616C75653A203C696E707560
:1033C0007420747970653D227465787422206E6172
:1033D0006D653D2264696D76616C7565223E3C6267
:1033E000723E3C696E70757420747970653D22730D
:1033F00075626D6974222076616C75653D22537526
:10340000626D6974223E3C2F666F726D3E3C2F6880
:10341000746D6C3E000000002564000041542B4395
:10342000495053454E443D25642C25640D0A000047
:103430002573257325640D0A0D0A2573000000000D
:1034400041542B43495053454E443D25642C25643B
:103450000D0A2573000000004154000041542B4325
:1034600049505354415455530000000041542B43DC
:10347000574C41500000000041542B474D52000072
:1034800041542B43574D4F44453F000041542B437B
:10349000574D4F44453D330041542B43574A41500B
:1034A0003D224E6F6E7961222C22706F72736368B9
:1034B000653931312200000041542B43574A4150B5
:1034C0003F00000041542B525354000041542B4301
:1034D00049504D55583D310041542B43494F4241CD
:1034E00055443D31313532303000000041542B43DA
:1034F00049505345525645523D312C38300000005A
:1035000041542B43494653520000000041542B4381
:10351000495053544152543D3F00000041542B4305
:10352000574C49460000000041542B43575141502D
:103530000000000041542B43575341503D00000010
:10354000415445300000000072656164790000005C
:103550004C696E6B00000000556E6C696E6B00006C
:103560004F4B000053454E44204F4B002B495044D5
:10357000000000004552524F5200000077726F6EFB
:10358000672073796E74617800000000627573794A
:1035900020702E2E2E0000006275737920696E65F2
:1035A000742E2E2E000000004F4B0D0A000000006C
:1035B00041542B43495053454E44000053454E441B
:1035C000204F4B0D0A00000041542B434950434CFF
:1035D0004F53453D25640D0A000000002C000000FB
:1035E0003A000000200000000D0A00007B000000EF
:1035F0007D000000504F53540000000070756D7046
:10360000000000003F0000003D000000000000003E
:10361000260000003137322E32302E3131322E3139
:10362000333600003139322E3136382E342E310007
:1036300041542B43574A41503D222573222C2225C9
:103640007322000041542B43575341503D22222CFA
:1036500022222C22222C22220000000000202020E6
:103660002020202020202828282828202020202032
:103670002020202020202020202020202088101002
:10368000101010101010101010101010100404045E
:10369000040404040404041010101010101041411C
:1036A000414141410101010101010101010101010A
:1036B000010101010101010110101010101042421E
:1036C00042424242020202020202020202020202DA
:1036D000020202020202020210101010200000007A
:1036E00000000000000000000000000000000000DA
:1036F00000000000000000000000000000000000CA
:1037000000000000000000000000000000000000B9
:1037100000000000000000000000000000000000A9
:103720000000000000000000000000000000000099
:103730000000000000000000000000000000000089
:103740000000000000000000000000000000000079
:103750000000000000000000000000000000000069
:1037600000A24A040000000000000000010203045F
:10377000060708099430000898300008A0300008B7
:10378000A4300008AC300008BC300008D03000087D
:10379000DC300008F0300008F8300008083100087C
:1037A0005031000800000000000000000000000090
:1037B0000100000000000000000000000000000008
:1037C00000000000000000000000000000000000F9
:1037D00000000000000000000000000000000000E9
:1037E00000000000000000000000000000000000D9
:1037F00000000000000000000000000000000000C9
:103BD0004800002000000000000000000102030473
:103BE000010203040607080902040608FFFF00009B
:103BF000583400085C3400086C340008783400083D
:103C0000803400088C34000898340008B834000868
:103C1000C4340008CC340008D8340008EC34000860
:103C2000003500080C3500081C3500082835000850
:103C30003435000840350008483500085035000884
:103C40005835000860350008643500086C350008F8
:103C5000743500087C3500088C350008983500085C
:043C60005C360008C6
:0400000508000000EF
:00000001FF
