:020000040800F2
:10000000C819002049040008A5040008A71B00081F
:10001000A5040008A5040008A504000800000000CD
:10002000000000000000000000000000A50400081F
:10003000A504000800000000A5040008791B0008C2
:10004000A5040008A5040008A5040008A5040008EC
:10005000A5040008A5040008A5040008A5040008DC
:10006000A5040008A5040008A5040008A5040008CC
:10007000A5040008A5040008A5040008A5040008BC
:10008000A5040008A5040008A5040008A5040008AC
:10009000A5040008A5040008A50400089D21000887
:1000A000A5040008A5040008A5040008A50400088C
:1000B000A5040008A5040008A5040008A50400087C
:1000C000A5040008A5040008A5040008A50400086C
:1000D000A5040008A5040008A5040008A50400085C
:1000E000A5040008A5040008A504000800000000FD
:1000F0000000000000000000000000000000000000
:1001000000000000000000005FF808F180B590B02A
:1001100000AFF860B9601346FB800120012101F0B7
:100120002FFA0820012101F049FA0120012101F0F4
:1001300045FA4FF48020012101F05EFA00F0AAF8A0
:100140004FF4706001F06CFE2B4AFB6813602A4B81
:100150000C225A81284B00229A81274B00221A81B7
:10016000254B0022DA80244B00229A802348224922
:1001700001F03EFB224801F03DFD224B3B61BB6894
:100180007B610023BB61FB88FB6100233B62802312
:100190007B620023BB620023FB6220233B634FF49E
:1001A00040537B630023BB6307F1100314481946D7
:1001B00001F0DCFD0D2387F83C30012387F83F3048
:1001C000002387F83D30002387F83E3007F13C03D9
:1001D000184602F037F80A48012101F005FE0748E9
:1001E000012101F0BFFB05484021012201F0DAFBAB
:1001F0004037BD4680BD00BF60050020004800407C
:10020000300002400448004080B58EB000AF7860F6
:100210000B467B804FF4706001F002FE1B4801F03A
:10022000E9FC1B4BBB607B68FB6000233B617B8868
:100230007B610023BB618023FB6100233B620023C1
:100240007B622023BB624FF44053FB6200233B637D
:1002500007F108030D48194601F088FD0D2387F8C2
:100260003430012387F83730002387F835300023F6
:1002700087F8363007F13403184601F0E3FF0348EE
:10028000012101F0B1FD3837BD4680BD300002408C
:100290000448004080B500AF0C4B03229A700B4B12
:1002A0000422DA70094B4FF400621A8008480749AB
:1002B00000F0FCF8054B1822DA70044B4FF4806212
:1002C0001A800348014900F0F1F880BD5C05002068
:1002D000000C014080B500AF154A154B1B6843F078
:1002E000010313601249124B5A68124B13404B60C2
:1002F0000F4A0F4B1B6823F0847323F48033136081
:100300000B4A0B4B1B6823F480231360084A084BED
:100310005B6823F4FE035360054B4FF41F029A60A1
:1003200000F00CF8044B4FF000629A6080BD00BFF3
:10033000001002400000FFF800ED00E080B500AFC3
:1003400000F002F880BD00BF80B483B000AF00238E
:100350007B6000233B603A4A394B1B6843F480338F
:100360001360374B1B6803F400333B607B68013339
:100370007B603B68002B03D17B68B3F5A06FF0D1A5
:100380002F4B1B6803F40033002B02D001233B608A
:1003900001E000233B603B68012B4BD1294A294BEC
:1003A0001B6843F010031360264A264B1B6823F09A
:1003B00003031360234A234B1B6843F002031360BB
:1003C0001F4A1F4B5B6853601D4A1D4B5B6853609F
:1003D0001B4A1B4B5B6843F480635360184A184BFD
:1003E0005B6823F47C135360154A154B5B6843F438
:1003F000E8135360124A124B1B6843F0807313607A
:1004000000BF0F4B1B6803F00073002BF9D00C4AA0
:100410000B4B5B6823F003035360094A084B5B688E
:1004200043F00203536000BF054B5B6803F00C030D
:10043000082BF9D10C37BD465DF8047B704700BF2F
:10044000001002400020024080B582B000AF104B87
:100450007B60104B3B6007E03B681A1D3A607A688E
:10046000111D796012681A603B680B4A9342F3D3FE
:100470000A480B494FF000028842B8BF40F8042BED
:10048000FADBFFF727FF00F057F90837BD4680BDBC
:1004900098460008000000200805002008050020FC
:1004A000C815002080B400AFFEE700BF80B489B05B
:1004B00000AF786039600023FB6100233B610023BB
:1004C000BB610023FB6000237B610023BB603B68B2
:1004D000DB7803F00F03FB613B68DB7803F010036C
:1004E000002B05D03B689B781A46FB691343FB61E0
:1004F0003B681B88DBB2002B44D07B681B687B61A8
:100500000023BB6138E0BB69012202FA03F3FB6000
:100510003B681B881A46FB6813403B613A69FB68DD
:100520009A4226D1BB699B00FB60FB680F2202FA4E
:1005300003F3BB60BB68DB437A6913407B61FB68F4
:10054000FA6902FA03F37A6913437B613B68DB784B
:10055000282B05D1BB6901229A407B685A6108E0CB
:100560003B68DB78482B04D1BB6901229A407B6849
:100570001A61BB690133BB61BB69072BC3D97B68B7
:100580007A691A603B681B88FF2B4AD97B685B68D5
:100590007B610023BB613EE0BB6908331A4601233F
:1005A0009340FB603B681B881A46FB6813403B6125
:1005B0003A69FB689A422BD1BB699B00FB60FB68E0
:1005C0000F2202FA03F3BB60BB68DB437A69134076
:1005D0007B61FB68FA6902FA03F37A6913437B6172
:1005E0003B68DB78282B07D1BB6908331A46012307
:1005F00003FA02F27B685A613B68DB78482B07D12B
:10060000BB6908331A46012303FA02F27B681A61B8
:10061000BB690133BB61BB69072BBDD97B687A69B4
:100620005A602437BD465DF8047B704780B485B0BE
:1006300000AF78600B467B800023FB737B689A6871
:100640007B881340002B02D00123FB7301E00023C1
:10065000FB73FB7B18461437BD465DF8047B70477F
:1006600090B484B000AF03460A46FB711346BB71D9
:100670000023FB60BB7903F003039B000F2202FA07
:1006800003F3FB601649BB799B08DBB21846144A9A
:10069000BB799B08DBB2023352F82320FB68DB43B3
:1006A0001A40831C41F823200D48BB799B08DBB21C
:1006B0001C460B4ABB799B08DBB2023352F823205D
:1006C000F979BB7903F003039B0001FA03F31A43A2
:1006D000A31C40F823201037BD4690BC704700BFD4
:1006E0000000014080B500AF022001F067FA012050
:1006F00000F0CAFD002000F099FD00204FF46011C9
:1007000000F0D2FD012000F0EDFD00BF392000F027
:1007100091FF0346002BF9D0022000F0F3FD0020EA
:1007200000F00CFE002000F025FE002000F03EFE50
:10073000002000F057FE80BDB0B58AB000AFFFF7D3
:10074000D1FF4FF47A70402101F0CAF94D484E496B
:100750004FF47A72FFF7DAFC01F0D6FD01F0E8FD04
:1007600000F0BCF901F0F0FD01F0FAF90346FB845A
:1007700000BF02F045F80346002B13D101F0F0F959
:100780000246FB8CD31A184602F0FEFB02460B46CB
:10079000104619464FF000023C4B02F0CBFC0346DA
:1007A000002BE6D1062001F02FFF0120502100F0A0
:1007B00041F90C2001F028FF002387F8253002F0D2
:1007C00061F801F0CDF90246314B1B68D31AB3F53D
:1007D000FA7F28D301F0C4F902462D4B1A602D4C44
:1007E0003B46184602F0B8F825463C460FCC0FC5EC
:1007F00094E8070085E80700264B1B7E012B12D1E9
:10080000254B1B78184600F09FF9244B1B7818469F
:1008100000F0B0F91F4B1A78214B1B68104619469F
:10082000204A00F06DF801F09BF902461E4B1B6850
:10083000D31A42F20F72934203D901F069FB01F01F
:1008400073FB01F08DF90246184B1B68D31A44F66E
:100850001F62934214D901F083F90246134B1A60C8
:1008600001F0CEFF034687F8253097F82530002B9E
:1008700006D00120502100F0DDF80C2001F0C4FE6C
:100880009DE700BF80841E00240700200000244054
:100890000C050020080700207505002074050020C5
:1008A0003C000020780500201405002010050020E1
:1008B00080B58AB006AFF860B96011461A460B469B
:1008C000FB711346BB71F879B9793A7E3B7F009092
:1008D000019102920393FB680493BB68059305485A
:1008E0004FF4C871044A054B00F060FC1037BD4658
:1008F00080BD00BF7805002010410008C8410008F5
:1009000090B587B002AF0346B9607A60FB733E488A
:100910004FF4967101F024FDB86802F07DFF0346A4
:100920009AB23A4B1A80786802F076FF03469AB280
:10093000374B1A80364B1B88364837491A4600F029
:100940005FFC344802F068FF0346DAB2334B1A709A
:10095000334B5B68184602F05FFF03469AB22F4B99
:100960001B789BB213449AB2284B1B8813449AB24B
:10097000274B1B8813449BB205339AB2294B1A802C
:10098000284B1A88284B1A80FA7B264B1B881E4856
:10099000264900F035FC1C4802F03EFF03469AB29F
:1009A000214B1B8813449AB21F4B1A80164801F042
:1009B000F1FD154802F030FF03469BB2124819467C
:1009C00001F0CEFC164B5C68114B1B880133009381
:1009D0007B6801930C481649BA68234600F010FC66
:1009E000094801F0D7FD104B1B88184601F046FD61
:1009F000054802F011FF03469BB20348194601F077
:100A0000AFFC1437BD4690BD340C002020050020FB
:100A100022050020200B002064430008240500204C
:100A20002400002026050020280500206843000837
:100A30007C43000880B582B000AF03460A46FB71D4
:100A40001346BB80194B00221A6004E0174B1B6849
:100A50000133164A1360154B1B68154A9342F5D9AA
:100A6000124B00221A6004E0104B1B6801330F4A3E
:100A700013600E4B1B680E4A9342F5D90B4B0022B4
:100A80001A6004E0094B1B680133084A1360074BE6
:100A90001B68074A9342F5D9092001F0B5FD0B20E8
:100AA00001F0B2FD0837BD4680BD00BF1C05002027
:100AB0001B1F010080B582B000AF1423FB7102231D
:100AC000BB714FF4E043BB803B1D03481946FFF761
:100AD000EDFC0837BD4680BD000C014080B500AF7D
:100AE000FFF7E8FF024B4FF4E0421A6180BD00BF00
:100AF000000C014080B582B000AF3B4683E80300A4
:100B00003B6818460C4903F00DF80346002B04D04F
:100B1000BB88DAB2094B1A700BE03B6818460849EB
:100B200003F000F80346002B03D0BB88DAB2054B74
:100B30001A700837BD4680BDA44300087505002023
:100B4000AC4300087405002080B582B000AF0346B6
:100B5000FB71FB79002B04D0012B05D100F026F8A6
:100B600005E000F035F802E000F032F800BF083789
:100B7000BD4680BD80B582B000AF0346FB71FB79F6
:100B8000012B04D0022B05D0002B06D008E000F08A
:100B900047F808E000F05AF805E000F02BF802E012
:100BA00000F028F800BF0837BD4680BD80B400AF14
:100BB000054B4FF480525A61044B01221A70BD4616
:100BC0005DF8047B704700BF000C014075050020F4
:100BD00080B400AF054B4FF480521A61044B0022E1
:100BE0001A70BD465DF8047B704700BF000C0140E1
:100BF0007505002080B400AF074B4FF400521A6116
:100C0000054B4FF480421A61044B00221A70BD4616
:100C10005DF8047B704700BF000C014074050020A4
:100C200080B400AF074B4FF400525A61054B4FF4AC
:100C300080421A61044B01221A70BD465DF8047BA4
:100C4000704700BF000C01407405002080B400AF65
:100C5000074B4FF400521A61054B4FF480425A6122
:100C6000044B02221A70BD465DF8047B704700BF3A
:100C7000000C01407405002080B483B000AF7860A0
:100C80000B46FB707B68FA781A70012318460C3704
:100C9000BD465DF8047B704780B485B000AF7860D6
:100CA00039600023FB600AE07B685A1C7A603A686E
:100CB000511C396012781A70FB680133FB603B6885
:100CC0001B78002BF0D1FB6818461437BD465DF841
:100CD000047B704780B586B000AFF8607A603B60F7
:100CE0000B46FB7200237B617B68013B7B603B68AA
:100CF000092B10D93B681E4AA2FB0323DB08FA7AB2
:100D0000F86811467A68FFF7E5FF78617B69FA6851
:100D10001344FB6011E00DE0FB7AF8681946FFF719
:100D2000ABFFFB680133FB607B6901337B617B6850
:100D3000013B7B607B68002BEEDC39680C4BA3FB2E
:100D40000123DA0813469B0013445B00CA1AD3B28E
:100D50003033DBB2F8681946FFF78EFF02467B6935
:100D600013447B617B6918461837BD4680BD00BFC0
:100D7000CDCCCCCC90B587B000AFF8607A603B604A
:100D80000B46FB7200237B613B68002B03DA3B6858
:100D90005B423B6101E03B683B617B68013B7B6000
:100DA0003B69092B25D93B68002B0FDA3B69314A97
:100DB000A2FB0323DB085B421C46FB7AF86819465A
:100DC0007A682346FFF7D6FF78610DE03B69294A30
:100DD000A2FB0323DB081C46FB7AF86819467A68F5
:100DE0002346FFF7C7FF78617B69FA681344FB600D
:100DF00025E03B68002B02DA7B68013B7B600DE05D
:100E0000FB7AF8681946FFF737FFFB680133FB6090
:100E10007B6901337B617B68013B7B607B68002BD6
:100E2000EEDC3B68002B0ADAF8682D21FFF724FF7F
:100E300002467B6913447B61FB680133FB603969BF
:100E40000C4BA3FB0123DA0813469B0013445B0001
:100E5000CA1AD3B23033DBB2F8681946FFF70CFF79
:100E600002467B6913447B617B6918461C37BD468B
:100E700090BD00BFCDCCCCCC90B589B002AFF860AE
:100E80007A601A460B46FB721346BB7200237B61E5
:100E90007B68013B7B60BB6A1B09002B13D0BB6ADC
:100EA0001B09FA7ABC7A0093F86811467A682346DF
:100EB000FFF7E2FF02467B6913447B617B69FA68B6
:100EC0001344FB6011E00DE0FB7AF8681946FFF768
:100ED000D3FEFB680133FB607B6901337B617B6878
:100EE000013B7B607B68002BEEDCBB6A03F00F03E9
:100EF000092B0BD8BB6ADBB203F00F03DBB2303334
:100F0000DBB2F8681946FFF7B7FE19E0BB7A002B91
:100F10000BD0BB6ADBB203F00F03DBB23733DBB2BB
:100F2000F8681946FFF7A8FE0AE0BB6ADBB203F0D7
:100F30000F03DBB25733DBB2F8681946FFF79CFEAC
:100F40007B6901337B617B6918461C37BD4690BDC8
:100F500090B58BB002AFF860B9607A603B60002357
:100F6000BB6100237B61FB68002B02D0FB68002281
:100F70001A70FCE07B681B78252B0BD0FB685A1C91
:100F8000FA607A68511C796012781A707B690133B3
:100F90007B61ECE07B6801331B78252B0BD1FB6870
:100FA0005A1CFA6025221A707B6802337B607B69C9
:100FB00001337B61DBE02023FB770023BB777B6879
:100FC00001337B607B681B78302B04D13023FB77A7
:100FD0007B6801337B600EE0BB7F1A4692001344AE
:100FE0005B00DAB27B681B781344DBB2303BBB7723
:100FF0007B6801337B607B681B782F2B03D97B6870
:101000001B78392BE8D9BA7F7B6913441A46BB6831
:101010009A4205D9BB68DAB27B69DBB2D31ABB77D7
:101020007B681B78583B202B00F2938001A252F87A
:1010300023F000BF0B1100085311000853110008E2
:1010400053110008531100085311000853110008F0
:1010500053110008531100085311000853110008E0
:101060003D110008B9100008531100085311000881
:101070005311000853110008B9100008531100085B
:1010800053110008531100085311000853110008B0
:1010900053110008531100085311000853110008A0
:1010A0002911000853110008D3100008531100083B
:1010B00053110008ED100008BC7F3B681A1D3A6010
:1010C0001B68FA7FF86811462246FFF753FEB861A5
:1010D00042E0BC7F3B681A1D3A601B68FA7FF868E3
:1010E00011462246FFF7F6FDB86135E0BC7F3B684C
:1010F0001A1D3A601B68FA7F0093F8681146224671
:101100000023FFF7B9FEB86126E0BC7F3B681A1DDB
:101110003A601B68FA7F0093F86811462246012363
:10112000FFF7AAFEB86117E03B681A1D3A601B681A
:10113000F8681946FFF7B0FDB8610DE03B681A1D6D
:101140003A601B68DBB2F8681946FFF795FDB86195
:1011500002E04FF0FF3325E07B6801337B60BB6921
:10116000FA681344FB607A69BB6913447B617B684E
:101170001B78002B04D07A69BB689A42FFF4FAAE60
:101180007A69BB689A4203D2FB6800221A7008E0B1
:10119000FB68013BFB60FB6800221A707B69013B26
:1011A0007B617B6918462437BD4690BD0CB480B581
:1011B00084B000AF7860396007F11C03BB607868C9
:1011C0003968BA69BB68FFF7C3FEF860FB68184668
:1011D0001037BD46BDE8804002B0704780B584B08E
:1011E00000AFF860B9607A60F8686421BA687B681B
:1011F000FFF7AEFE034618461037BD4680BD00BF60
:101200000EB480B585B000AF786007F12003BB60F5
:101210007868F969BA68FFF7E1FFF860FB6818467B
:101220001437BD46BDE8804003B0704780B483B03A
:1012300000AF7860134A134B1B6823F480331360AC
:10124000104A104B1B6823F4802313607B68B3F5AE
:10125000803F03D0B3F5802F07D00DE0094A094B3A
:101260001B6843F48033136006E0064A054B1B6895
:1012700043F4A023136000BF0C37BD465DF8047B28
:10128000704700BF0010024080B483B000AF034637
:10129000FB71044AFB7913600C37BD465DF8047B93
:1012A000704700BF0000424280B485B000AF786054
:1012B00039600023FB600A4B5B68FB60FB6823F42A
:1012C0007C13FB607A683B681343FA681343FB6046
:1012D000034AFB6853601437BD465DF8047B7047D2
:1012E0000010024080B483B000AF0346FB71044A93
:1012F000FB7913600C37BD465DF8047B704700BF77
:101300006000424280B485B000AF78600023FB608B
:10131000094B5B68FB60FB6823F00303FB60FA6822
:101320007B681343FB60044AFB6853601437BD4677
:101330005DF8047B704700BF0010024080B485B0A8
:1013400000AF78600023FB60094B5B68FB60FB68C3
:1013500023F0F003FB60FA687B681343FB60044AE8
:10136000FB6853601437BD465DF8047B704700BFCF
:101370000010024080B485B000AF78600023FB60AD
:10138000094B5B68FB60FB6823F4E063FB60FA6871
:101390007B681343FB60044AFB6853601437BD4607
:1013A0005DF8047B704700BF0010024080B485B038
:1013B00000AF78600023FB60094B5B68FB60FB6853
:1013C00023F46053FB607B68DB00FA681343FB6027
:1013D000034AFB6853601437BD465DF8047B7047D1
:1013E0000010024080B485B000AF78600023FB603D
:1013F000094B5B68FB60FB6823F44043FB60FA68C1
:101400007B681343FB60044AFB6853601437BD4696
:101410005DF8047B704700BF0010024080B487B0C5
:1014200000AF786000237B6100233B610023FB60F9
:101430000023BB604D4B5B6803F00C037B617B6951
:10144000042B07D0082B09D0002B34D17B68484AE5
:101450001A6034E07B68464A1A6030E0434B5B68B0
:1014600003F470133B61414B5B6803F48033FB6012
:101470003B699B0C02333B61FB68002B06D13B6947
:101480003C4A02FB03F27B681A6013E0374B5B684F
:1014900003F40033002B06D03B69364A02FB03F20B
:1014A0007B681A6006E03B69314A02FB03F27B6805
:1014B0001A6004E003E07B682D4A1A6000BF2B4BE2
:1014C0005B6803F0F0037B617B691B097B612A4A3F
:1014D0007B6913441B78DBB2BB607B681A68BB680E
:1014E000DA407B685A60214B5B6803F4E0637B6100
:1014F0007B691B0A7B61204A7B6913441B78DBB242
:10150000BB607B685A68BB68DA407B689A60174B9F
:101510005B6803F460537B617B69DB0A7B61164A7D
:101520007B6913441B78DBB2BB607B685A68BB687D
:10153000DA407B68DA600D4B5B6803F440437B6103
:101540007B699B0B7B610D4A7B6913441B78DBB283
:10155000BB607B68DA68BB68B2FBF3F27B681A6138
:101560001C37BD465DF8047B704700BF0010024089
:1015700000127A0000093D00780400208804002051
:1015800080B483B000AF78600B46FB70FB78002B13
:1015900006D00949084B5A697B6813434B6106E042
:1015A0000549054B5A697B68DB4313404B610C3797
:1015B000BD465DF8047B70470010024080B483B0E4
:1015C00000AF78600B46FB70FB78002B06D0094912
:1015D000084B9A697B6813438B6106E00549054B0C
:1015E0009A697B68DB4313408B610C37BD465DF81D
:1015F000047B70470010024080B483B000AF786075
:101600000B46FB70FB78002B06D00949084BDA69C2
:101610007B681343CB6106E00549054BDA697B68BB
:10162000DB431340CB610C37BD465DF8047B70474C
:101630000010024080B487B000AF0346FB71002366
:10164000FB6000237B610023FB74FB795B09DBB249
:10165000FB60FB68012B03D1124B1B687B6109E027
:10166000FB68022B03D10F4B1B6A7B6102E00D4B21
:101670005B6A7B61FB7903F01F03FB60FB687A699F
:1016800022FA03F303F00103002B02D00123FB74C1
:1016900001E00023FB74FB7C18461C37BD465DF857
:1016A000047B70470010024080B485B000AF7860C2
:1016B0000023FB60344BFB607B689B79002B4FD091
:1016C0003149314B1A687B681B68DB4313400B6060
:1016D0002D492D4B5A687B681B68DB4313404B60D8
:1016E0007B681B791A46FB681344FB60FB68FA6849
:1016F00011687A6812680A431A602349224B9A6873
:101700007B681B68DB4313408B601F491E4BDA6804
:101710007B681B68DB431340CB607B685B79102BD5
:101720000ED11949184B9A687B681B6813438B606C
:101730001549154BDA687B681B681343CB601DE0C5
:10174000114BFB607B685B791A46FB681344FB60B6
:10175000FB68FA6811687A6812680A431A600DE03B
:101760007B681B791A46FB681344FB60FB68FA68C8
:1017700011687A681268D2430A401A601437BD466D
:101780005DF8047B704700BF0004014080B485B061
:1017900000AF78600023FB730023BB600C4B1A681A
:1017A0007B681340BB600A4B5A697B681340002B6F
:1017B00005D0BB68002B02D00123FB7301E000239E
:1017C000FB73FB7B18461437BD465DF8047B7047FE
:1017D0000004014080B483B000AF7860034A7B68A6
:1017E00053610C37BD465DF8047B7047000401402F
:1017F00080B58CB000AF786039600023FB620023B5
:10180000BB6200237B6200233B620023FB617B6899
:10181000FB617B681B8A9BB2FB62FA6A4CF6FF7322
:101820001340FB623B68DB881A46FB6A1343FB628A
:10183000FB6A9AB27B681A827B689B899BB2FB62C7
:10184000FA6A4EF6F3131340FB623B689A883B68D2
:101850001B8913439AB23B685B8913439BB21A46B8
:10186000FB6A1343FB62FB6A9AB27B689A817B68CE
:101870009B8A9BB2FB62FA6A4FF6FF431340FB62FE
:101880003B689B891A46FB6A1343FB62FB6A9AB268
:101890007B689A8207F108031846FFF7BFFDFB69D2
:1018A0002E4A934202D17B69BB6201E03B69BB6275
:1018B0007B689B899BB29BB21BB2002B0CDABA6A85
:1018C00013469B0013449A001A443B681B685B0054
:1018D000B2FBF3F37B620BE0BA6A13469B0013443E
:1018E0009A001A443B681B689B00B2FBF3F37B62CF
:1018F0007B6A1B4AA2FB03235B091B01FB62FB6A99
:101900001B09642202FB03F37A6AD31A3B627B68E9
:101910009B899BB29BB21BB2002B0CDA3B6ADB00AB
:1019200032330F4AA2FB03235B0903F00703FA6A71
:101930001343FB620BE03B6A1B013233084AA2FBF4
:1019400003235B0903F00F03FA6A1343FB62FB6A8C
:101950009AB27B681A813037BD4680BD003801409D
:101960001F85EB5180B483B000AF78600B46FB70ED
:10197000FB78002B08D07B689B899BB243F4005313
:101980009AB27B689A8107E07B689B899BB223F4BB
:1019900000539AB27B689A810C37BD465DF8047B90
:1019A000704700BF80B483B000AF78600B467B8087
:1019B00013467B707B78002B08D07B689B8A9AB299
:1019C0007B8813439AB27B689A8209E07B689B8A82
:1019D0009AB27B88DB439BB213409AB27B689A82AF
:1019E0000C37BD465DF8047B704700BF80B483B000
:1019F00000AF78600B467B807B88C3F308039AB204
:101A00007B689A800C37BD465DF8047B704700BF49
:101A100080B485B000AF78600B467B800023FB73F9
:101A20007B681B889AB27B8813409BB2002B02D044
:101A30000123FB7301E00023FB73FB7B1846143783
:101A4000BD465DF8047B704780B483B000AF0346A9
:101A50003960FB7197F90730002B0BDA0D49FB79E0
:101A600003F00F03043B3A68D2B21201D2B20B4426
:101A70001A7609E0084997F907303A68D2B212019C
:101A8000D2B20B4483F800230C37BD465DF8047BCB
:101A9000704700BF00ED00E000E100E080B582B0DB
:101AA00000AF78607B68B3F1807F01D3012311E040
:101AB0000A4A7B6823F07F43013B53604FF0FF30BD
:101AC0000F21FFF7C1FF054B00229A60034B07224D
:101AD0001A60002318460837BD4680BD10E000E0BC
:101AE00080B582B000AF786039603B68DAB2094BEC
:101AF0001A70094B1A687B68B2FBF3F31846FFF7BC
:101B0000CDFF4FF0FF300021FFF79EFF0837BD46A5
:101B100080BD00BF8C0400200000002080B400AF16
:101B20000B4B1B6801334FF47A7202FB03F2094B33
:101B30009B6809490978B3FBF1F3D31A074A13608C
:101B4000064B1B681846BD465DF8047B704700BF16
:101B50002C05002010E000E08C040020300500205F
:101B600080B400AF034B1B681846BD465DF8047B8C
:101B7000704700BF2C05002080B400AF044B1B68E9
:101B80000133034A1360BD465DF8047B704700BF14
:101B90002C050020ABBE01E000207047002A00D0D9
:101BA00010600120704706980188034A914202D1D3
:101BB000043006907047FEE7ABBE000080B485B0ED
:101BC00000AF78600023FB60094B1B68FB60FB687B
:101BD00003F03803FB60FA687B681343FB60044A38
:101BE000FB6813601437BD465DF8047B704700BF87
:101BF0000020024080B483B000AF78607B681A6830
:101C00004FF6FE7313407A6813607B6800221A60F7
:101C10007B6800225A607B6800229A607B68002201
:101C2000DA607B68434A934206D1434A424B5B6881
:101C300043F00F03536077E07B68404A934206D13C
:101C40003D4A3D4B5B6843F0F00353606CE07B68BA
:101C50003B4A934206D1384A374B5B6843F4706382
:101C6000536061E07B68374A934206D1324A324B77
:101C70005B6843F47043536056E07B68324A93429A
:101C800006D12D4A2C4B5B6843F4702353604BE024
:101C90007B682E4A934206D1274A274B5B6843F460
:101CA0007003536040E07B68294A934206D1224A80
:101CB000214B5B6843F07063536035E07B68254AD5
:101CC000934206D1244A244B5B6843F00F035360D0
:101CD0002AE07B68214A934206D11F4A1E4B5B686B
:101CE00043F0F00353601FE07B681D4A934206D126
:101CF000194A194B5B6843F47063536014E07B68C6
:101D0000184A934206D1144A134B5B6843F470435C
:101D1000536009E07B68144A934205D10E4A0E4B8A
:101D20005B6843F4702353600C37BD465DF8047B59
:101D3000704700BF08000240000002401C00024043
:101D40003000024044000240580002406C00024053
:101D50008000024008040240000402401C040240CB
:101D600030040240440402405804024080B485B06C
:101D700000AF786039600023FB607B681B68FB6004
:101D8000FB6823F4FF4323F07003FB603B689A6811
:101D90003B681B6A1A433B681B691A433B685B69D3
:101DA0001A433B689B691A433B68DB691A433B68EB
:101DB0005B6A1A433B689B6A1343FA681343FB60F0
:101DC0007B68FA681A603B68DA687B685A603B682F
:101DD0001A687B689A603B685A687B68DA601437D7
:101DE000BD465DF8047B704780B483B000AF786077
:101DF0000B46FB70FB78002B06D07B681B6843F01A
:101E000001027B681A6006E07B681A684FF6FE7371
:101E100013407A6813600C37BD465DF8047B704749
:101E200080B483B000AF78607B6803F08053002BF0
:101E300003D0064A7B68536002E0054A7B68536022
:101E40000C37BD465DF8047B704700BF00040240BC
:101E50000000024080B483B000AF03463960FB71DC
:101E600097F90730002B0BDA0D49FB7903F00F03CC
:101E7000043B3A68D2B21201D2B20B441A7609E09E
:101E8000084997F907303A68D2B21201D2B20B442E
:101E900083F800230C37BD465DF8047B704700BF14
:101EA00000ED00E000E100E080B489B000AFF86030
:101EB000B9607A60FB6803F00703FB61FB69C3F15B
:101EC0000703042B28BF0423BB61FB690433062BE3
:101ED00002D9FB69033B00E000237B61BB6901225F
:101EE00002FA03F3013B1A46BB681A407B699A4029
:101EF0007B69012101FA03F3013B19467B680B4022
:101F0000134318462437BD465DF8047B704700BF75
:101F100080B500AF00F05EF800F07CF800F08EF8BD
:101F200000F0A2F880BD00BF80B500AF214B0022B9
:101F30001A70214B00221A60204B00221A60204B9D
:101F400000221A601F4B00221A60FFF7E7FD0346CC
:101F50001A461D4B1A601D4B40225A6100BFFFF705
:101F6000DDFD03461A46184B1B68D31A40F24B425C
:101F70009342F4D9154B40221A6100F037F8FFF76D
:101F8000EFFD0246104B1A6000BFFFF7E9FD024665
:101F90000D4B1B68D31AB3F57A7FF6D30C482D216D
:101FA00000F07EF800F0C8F8FFF7DAFD0246064BB5
:101FB0001A6080BD4405002034050020380500204B
:101FC0003C0500204005002048050020000C014091
:101FD000FC0B002080B500AF08200121FFF7EEFACE
:101FE00001200121FFF7EAFA80BD00BF80B500AFF4
:101FF000064B40221A80054B0422DA70034B032261
:102000009A7003480149FEF751FA80BDF80B002091
:10201000000C014080B500AF064B40221A80054BF2
:102020001022DA70034B03229A7003480149FEF72D
:102030003DFA80BDF80B0020000C014080B582B055
:1020400000AF01200621FEF70BFB40233B6000237D
:102050003B7110237B710123BB713B461846FFF790
:1020600023FB0837BD4680BD80B582B000AF172383
:102070003B7104237B710023BB710123FB713B1D6A
:10208000184600F0DFF804200F210022FFF70CFFB4
:10209000034617201946FFF7DDFE0837BD4680BD11
:1020A00080B485B000AF78600B46FB700F23BB7324
:1020B00000237B730223FB7333E0FB7B7A681344BA
:1020C0001B783B733B7B362B09D87B7B7A7B19498A
:1020D00031F8122091B2174A22F8131012E07B7BDC
:1020E0007A7B144931F8122092B290B2BA7B012166
:1020F00001FA02F292B201460A4392B291B20D4A3B
:1021000022F81310BB7B002B03D0BB7B013BBB73BE
:1021100004E00F23BB737B7B01337B73FB7B0133B9
:10212000FB73FA7BFB789A42C7D31437BD465DF840
:10213000047B7047F00B002080B483B000AF002315
:10214000BB710023FB711CE0BB795A1CBA711946A4
:10215000FB79104A32F813309BB2DAB20E4B5A5464
:10216000BB795A1CBA711946FB790A4A32F8133006
:102170009BB21B0A9BB2DAB2074B5A54FB7901336C
:10218000FB71FB79022BDFD90C37BD465DF8047B70
:10219000704700BFF00B00202C0C002080B500AF72
:1021A0004020FFF7F3FA0346002B3BD01E484021A6
:1021B000FEF73CFA0346002B0CD0FFF7AFFC0346BA
:1021C0001A461A4B1A60FFF7A9FC03461A46184B29
:1021D0001A6024E0FFF7A2FC03461A46154B1A606A
:1021E000FFF79CFC03461A46134B1A600F4B1B6803
:1021F000002B14D0114B1B78DBB219460E4B1B6819
:10220000DAB20A4B1B68DBB2D31ADAB20C4B5A545F
:102210000A4B1B78DBB20133DAB2084B1A7040204C
:10222000FFF7D8FA80BD00BF000C01403405002044
:10223000400500203C050020380500204405002012
:10224000FC0B002080B487B000AF786000237B6176
:1022500000233B610F23FB607B68DB78002B3AD0C7
:10226000274BDB68DB4303F4E0631B0A7B617B697C
:10227000C3F104033B617B69FA6822FA03F3FB6054
:102280007B685B781A463B6902FA03F37B617B68E3
:102290009B781A46FB6813407A6913437B617B691C
:1022A0001B017B61174A7B681B787969C9B21344AB
:1022B0000A4683F80023134A7B681B785B09DBB26C
:1022C00018467B681B7803F01F03012101FA03F312
:1022D00042F820300FE00B497B681B785B09DBB2CA
:1022E00018467B681B7803F01F0301229A4000F117
:1022F000200341F823201C37BD465DF8047B70475E
:1023000000ED00E000E100E080B582B000AF032303
:10231000BB711023FB710123BB803B1D0348194691
:10232000FEF7C4F80837BD4680BD00BF000C014071
:1023300080B400AF034B01225A61BD465DF8047BB7
:10234000704700BF000C014080B400AF034B012276
:102350001A61BD465DF8047B704700BF000C014068
:1023600080B582B000AF78600B467B807B88786850
:1023700000211A4601F03EF90837BD4680BD00BF76
:1023800080B500AFFFF7ECFB0246034B1A60034B2E
:1023900001221A7080BD00BF500500204C050020AE
:1023A00090B583B000AF78600B467B8038E07B88C7
:1023B0002A484FF47A717A6801F03EF803461A46CB
:1023C000274B1A60264B1B681B78002B28D0244B08
:1023D0001C68234B1B68184601F01EFA0346204672
:1023E0001946204A042301F027F803461A461E4BDB
:1023F0001A601D4B1B68002B12D0194B1C68184B20
:102400001B68184601F008FA03469BB2204619469D
:10241000FFF7A6FF154B01221A70154B00221A7008
:10242000134B1B78DBB2012B14D1FFF799FB02464B
:10243000104B1B68D31A184600F0A6FD02460B4647
:10244000104619464FF000020B4B00F073FE034696
:10245000002BACD10C37BD4690BD00BF2407002037
:10246000D011002000450008D41100204D050020A7
:102470004C050020500500200000244080B582B0AB
:1024800000AF0346FB8054E038484FF47A71384A75
:102490000A2300F0D1FF03461A46364B1A60354B2B
:1024A0001B681B78002B44D029E0304801F0B4F9B8
:1024B00003462E481946304A092300F0BDFF034663
:1024C0001A462E4B1A602D4B1B68002B17D0294B38
:1024D0001B681A46294B1B68D31A1A46284B1A60E8
:1024E000244B1A68FB8809339BB210461946FFF744
:1024F00037FF244B01221A70234B00221A70224B03
:102500001B78DBB2012B14D1FFF72AFB02461F4BCD
:102510001B68D31A184600F037FD02460B461046DA
:1025200019464FF000021A4B00F004FE0346002B40
:10253000BBD1154B1B78DBB2012B14D1FFF710FB7D
:102540000246124B1B68D31A184600F01DFD0246C6
:102550000B46104619464FF000020D4B00F0EAFD05
:102560000346002B90D10837BD4680BD24070020CC
:1025700008450008D011002014450008D41100209F
:10258000580500204D0500204C0500205005002076
:102590000000244080B582B000AF786010E000BF3A
:1025A00018488021FFF734FA0346002BF8D07B68E7
:1025B0005A1C7A601B789BB212481946FFF716FA2C
:1025C0007B681B78002BEAD100BF0E488021FFF703
:1025D0001FFA0346002BF8D00A480D21FFF706FA30
:1025E00000BF08488021FFF713FA0346002BF8D0FC
:1025F000FFF7C6FE03480A21FFF7F8F90837BD4682
:1026000080BD00BF0048004090B585B000AF0346D4
:10261000FB71FB79274A52F82330FB6010E000BFC2
:1026200025488021FFF7F4F90346002BF8D0FB681A
:102630005A1CFA601B789BB21F481946FFF7D6F95F
:10264000FB681B78002BEAD1FFF79AFE00BF1A48FF
:102650008021FFF7DDF90346002BF8D016480D2145
:10266000FFF7C4F900BF14488021FFF7D1F90346F2
:10267000002BF8D010480A21FFF7B8F9FB790C2B92
:1026800004D10E480421FFF78BFE10E0FB79094AC4
:1026900052F82340FB79074A52F82330184601F0DC
:1026A000BBF803469BB220461946FFF779FE143764
:1026B000BD4690BD9404002000480040004500083D
:1026C000B0B58AB000AF786039603868204901F051
:1026D00039FB00201E4901F035FB02461D4B1A60F4
:1026E0001C4B1B68184600F04DFD0346DBB23B73E4
:1026F0000020194901F026FB03463B6100201749E1
:1027000001F020FB03467B610020144901F01AFB15
:102710000346BB610020124901F014FB002011495F
:1027200001F010FB0346FB6100200F4901F00AFB9A
:1027300003463B627B681D4607F10C040FCC0FC5B6
:1027400094E8070085E8070078682837BD46B0BDE3
:1027500030450008E00D00203445000838450008E9
:102760003C450008404500084445000880B586B057
:1027700000AFF8600B467A607B817B899B08BB8247
:102780000023FB8210E0FB8A9B00FA6813441B685D
:102790001846796801F0C6F90346002B01D0FB8A80
:1027A00007E0FB8A0133FB82FA8ABB8A9A42EAD3AA
:1027B000002318461837BD4680BD00BF84B080B5E1
:1027C00082B000AF07F1100E8EE80F00BB690B4816
:1027D00010211A46FFF7CAFF0346FB80FB88002B37
:1027E00003D0FB887B717B7900E000231846083713
:1027F000BD46BDE8804004B0704700BF1400002013
:1028000090B583B000AF0023FB7119484FF47A7183
:10281000184A052300F010FE03461A46164B1A60AC
:10282000154B1B68002B1DD0134B1B681348194612
:1028300000F094FF12480021FFF7D6FA0E4B1C68F7
:102840000D4B1B68184600F0E7FF03469BB220467D
:102850001946FFF785FD06484FF47A71FDF7D4FC61
:102860000123FB71FB7918460C37BD4690BD00BFB4
:1028700024070020A0440008B80D0020DC1100202F
:102880003000024098B500AF2B484FF47A712B4AC4
:102890000B2300F0D1FD03461A46294B1A60284B42
:1028A0001B68002B47D0264B1B682648194600F0B2
:1028B00055FF25480021FFF797FA214B1C68204B54
:1028C0001B68184600F0A8FF03469BB22046194635
:1028D000FFF746FD18484FF47A71FDF795FC19484B
:1028E0001A4901F02FFA0020194901F02BFA02468B
:1028F000184B1A600020154901F024FA00201449F1
:1029000001F020FA0246134B5A6000200F4901F0F3
:1029100019FA00200E4901F015FA02460D4B9A6093
:1029200000200A4901F00EFA0020094901F00AFAD4
:102930000246084BDA6098BD24070020484500088D
:10294000B80D0020DC1100203000024030450008A6
:1029500054450008100B0020B0B59EB004AF78625B
:10296000B44B00221A76FFF7FBF80246B24B1A600E
:10297000B2484FF47A71B24A042300F05DFD034679
:102980001A46B04B1A60AF4B1B68002B00F09F81BA
:10299000AC4B1B68AC48194600F0E0FEAB48002188
:1029A000FFF722FAA74B1C68A64B1B68184600F0DD
:1029B00033FF03469BB220461946FFF7D1FC9F48E0
:1029C0004FF47A71FDF720FC9A4C3B4618469E491D
:1029D000FFF776FE25463C460FCC0FC594E807006E
:1029E00085E80700934B6C4603F1100207CA84E8A0
:1029F00007000FCBFFF7E2FE034687F8663097F833
:102A00006630022B40F03A818A4BDB6818462F2152
:102A100000F03EFE38663B6E002B03D03B6E013368
:102A2000844AD360834BDB6818463F2100F030FEB8
:102A30000346002B00F0FC807E4BDB681846262105
:102A400000F026FE034687F85F3097F85F30002BD2
:102A500000F0A280002387F86730764BDB681846C9
:102A60007B4901F06FF902467A4B1A608EE07A4B8F
:102A70007B654FF6FF73A7F8583097F86730002B47
:102A800008D1744B1B681846744901F05BF9034682
:102A90007B6505E00020714901F054F903467B6530
:102AA0007B6D6D4A934202D07B6D002B28D197F845
:102AB0006730002B19D05F4B01221A76684B99685A
:102AC000674B1A68674B1B781D46674B1B781C4683
:102AD000664B1B781846664B1B780090019308469E
:102AE00011462A462346FDF7E3FE7B6A514A1C46FF
:102AF00015460FCD0FC495E8070084E80700F0E005
:102B000000205C4901F01EF902465B4B1A605A4BEB
:102B10001B68184600F036FB03469BB2A7F85830F6
:102B2000B7F85830022B15D807F1540393E8030087
:102B3000FDF7E0FF3F4B01221A7697F86730DB0084
:102B400007F1680213443C3B07F1540292E803008A
:102B500083E80300424B9968414B1A68414B1B784C
:102B60001D46414B1B781C46404B1B781846404B7A
:102B70001B7800900193084611462A462346FDF72C
:102B800097FE97F86730013387F8673097F867301A
:102B9000032B7FF66CAF33E0264BDB6818462C49DD
:102BA00001F0D0F802462B4B1A602B4BFB644FF61A
:102BB000FF73A7F85030274B1B681846274901F0D0
:102BC000C1F80346FB6400202A4901F0BBF8024625
:102BD000294B1A60284B1B68184600F0D3FA0346AD
:102BE0009BB2A7F85030B7F85030022B08D807F145
:102BF0004C0393E80300FDF77DFF0E4B01221A768C
:102C0000174B9968164B1A68164B1B781D46164BC6
:102C10001B781C46154B1B781846154B1B780090EB
:102C20000193084611462A462346FDF741FE4EE031
:102C30004DE000BF080700200C05002024070020FD
:102C4000C4440008C4150020E40D002030000240F8
:102C500058450008C80D00205C4500086045000884
:102C6000100B002075050020740500200E0B0020BD
:102C70000D0B002064450008C40D002097F8663055
:102C8000012B24D1194B9968184B1A68184B1B78E3
:102C90001D46184B1B781C46174B1B781846174BC4
:102CA0001B7800900193084611462A462346FDF7FB
:102CB000FFFD134B01221A767B6A114A1C4615460A
:102CC0000FCD0FC495E8070084E8070009E07B6A90
:102CD0000B4A1C4615460FCD0FC495E8070084E843
:102CE0000700786A6837BD46B0BD00BF100B0020F2
:102CF00075050020740500200E0B00200D0B002030
:102D00000807002081F0004102E000BF83F000438B
:102D100030B54FEA41044FEA430594EA050F08BF76
:102D200090EA020F1FBF54EA000C55EA020C7FEA3A
:102D3000645C7FEA655C00F0E2804FEA5454D4EBB7
:102D40005555B8BF6D420CDD2C4480EA020281EA81
:102D5000030382EA000083EA010180EA020281EAB9
:102D60000303362D88BF30BD11F0004F4FEA01310B
:102D70004FF4801C4CEA113102D0404261EB41011A
:102D800013F0004F4FEA03334CEA133302D05242A0
:102D900063EB430394EA050F00F0A780A4F101045C
:102DA000D5F1200E0DDB02FA0EFC22FA05F2801896
:102DB00041F1000103FA0EF2801843FA05F359417C
:102DC0000EE0A5F120050EF1200E012A03FA0EFCFB
:102DD00028BF4CF0020C43FA05F3C01851EBE37125
:102DE00001F0004507D54FF0000EDCF1000C7EEB42
:102DF00000006EEB0101B1F5801F1BD3B1F5001F80
:102E00000CD349085FEA30004FEA3C0C04F101049E
:102E10004FEA445212F5800F80F09A80BCF1004FC7
:102E200008BF5FEA500C50F1000041EB045141EA49
:102E3000050130BD5FEA4C0C404141EB010111F44A
:102E4000801FA4F10104E9D191F0000F04BF0146F5
:102E50000020B1FA81F308BF2033A3F10B03B3F1D3
:102E600020020CDA0C3208DD02F1140CC2F10C0263
:102E700001FA0CF021FA02F10CE002F11402D8BFC1
:102E8000C2F1200C01FA02F120FA0CFCDCBF41EA8D
:102E90000C019040E41AA2BF01EB0451294330BD5C
:102EA0006FEA04041F3C1CDA0C340EDC04F1140439
:102EB000C4F1200220FA04F001FA02F340EA030010
:102EC00021FA04F345EA030130BDC4F10C04C4F156
:102ED000200220FA02F001FA04F340EA0300294636
:102EE00030BD21FA04F0294630BD94F0000F83F480
:102EF000801306BF81F480110134013D4EE77FEA63
:102F0000645C18BF7FEA655C29D094EA050F08BFAE
:102F100090EA020F05D054EA000C04BF194610468F
:102F200030BD91EA030F1EBF0021002030BD5FEAD3
:102F3000545C05D14000494128BF41F0004130BDFB
:102F400014F580043CBF01F5801130BD01F000454F
:102F500045F0FE4141F470014FF0000030BD7FEAC2
:102F6000645C1ABF194610467FEA655C1CBF0B46BD
:102F7000024650EA013406BF52EA033591EA030FD4
:102F800041F4002130BD00BF90F0000F04BF0021CC
:102F9000704730B54FF4806404F132044FF00005FF
:102FA0004FF0000150E700BF90F0000F04BF002178
:102FB000704730B54FF4806404F1320410F00045DE
:102FC00048BF40424FF000013EE700BF42004FEAD9
:102FD000E2014FEA31014FEA02701FBF12F07F4356
:102FE00093F07F4F81F06051704792F0000F14BF53
:102FF00093F07F4F704730B54FF4607401F0004597
:1030000021F0004120E700BF50EA010208BF7047ED
:1030100030B54FF000050AE050EA010208BF7047E2
:1030200030B511F0004502D5404261EB41014FF44B
:10303000806404F132045FEA915C3FF4DCAE4FF04F
:1030400003025FEADC0C18BF03325FEADC0C18BF36
:10305000033202EBDC02C2F1200300FA03FC20FA87
:1030600002F001FA03FE40EA0E0021FA02F11444D4
:10307000C1E600BF4FF0FF3C06E000BF4FF0010C7F
:1030800002E000BF4FF0010C4DF804CD4FEA410CB7
:103090007FEA6C5C4FEA430C18BF7FEA6C5C1BD084
:1030A00001B050EA410C0CBF52EA430C91EA030F05
:1030B00002BF90EA020F0020704710F1000F91EA62
:1030C000030F58BF994208BF90422CBFD8176FEA30
:1030D000E37040F0010070474FEA410C7FEA6C5CFE
:1030E00002D150EA013C07D14FEA430C7FEA6C5C05
:1030F000D6D152EA033CD3D05DF8040B704700BF31
:103100008446104662468C461946634600E000BF7E
:1031100001B5FFF7B7FF002848BF10F1000F01BD50
:103120004DF808EDFFF7F4FF0CBF012000205DF81B
:1031300008FB00BF4DF808EDFFF7EAFF34BF0120A0
:1031400000205DF808FB00BF4DF808EDFFF7E0FF39
:1031500094BF012000205DF808FB00BF4DF808ED8A
:10316000FFF7CEFF94BF012000205DF808FB00BFF1
:103170004DF808EDFFF7C4FF34BF012000205DF8D3
:1031800008FB00BF00210A2200F0A4BE2DE9F04197
:103190004FF0010E744600254FF0FF3663198B4245
:1031A00000EB06070DD23F5D10F803C0BC452DD2E1
:1031B0001D460124C6EB030E63198B4200EB060784
:1031C000F1D34FF001084446C2F800E000254FF06B
:1031D000FF376319994200EB070E0ED91EF804E081
:1031E00010F803C0F44518D91D460124C7EB0308A5
:1031F0006319994200EB070EF0D80137701C874223
:1032000024BF3846C2F80080BDE8F0810CD04FF0F2
:10321000010E2E4674467544C0E709D04FF00108F0
:103220002F4644464544D4E7744505D00134B5E7FC
:10323000444504D00134CCE71D460124AEE71D46C9
:103240000124C6E72DE9F04FADF22C4D904607461C
:103250008B461046194609AA1E46FFF797FF82467D
:1032600009AA0DF2244142F8046F8A42FBD1002ED4
:1032700000F0DB80741E2146424608EB06050DF186
:10328000280912F8013BAA4249F8231001F1FF3145
:10329000F7D1099940464144524600F071FE00289A
:1032A0006DD1099B0AF1FF320393F31A049308EBE3
:1032B0000203C6EB0B010693CAF101030546059212
:1032C00001910793CDF808A00AE020B1049A039970
:1032D0008B4238BF13461D44019B0020AB4246D3AE
:1032E00007EB050B1BF8043059F82330002BECD109
:1032F000029B834238BF0346A34212D25A19BE5CD6
:1033000018F803E03A44B64508EB030106D033E071
:1033100011F801EF12F8016FB6452DD10133A34228
:10332000F6D3029B0599834298BF194616D9059B8F
:10333000069EEA18BB5C36783A449E427AD1069BD8
:1033400008EB000A06E013F801ED12F8016DB6452E
:1033500004D16146534501F1FF3CF4D1013088426C
:103360005ED8039B04981D44019BAB42B8D2002059
:103370000DF22C4DBDE8F08F079A1544ABE7CAEB70
:103380000601514538BF51460AF1FF3301934344CA
:1033900001310293CAF10103C6EB0B0204914FF015
:1033A000000C08EB0A0B039307EB0C00035D59F8C4
:1033B00023306BBBA24515D20CEB0A017B5C9BF85A
:1033C000005039449D4218BF534625D15D465346AF
:1033D00005E015F801EF11F8016FB6451CD1013376
:1033E000A342F6D3019B0133C2D0019B029E0CEB9A
:1033F00003017B5C357839449D4208D1334643450F
:10340000B6D013F8016D11F8015DAE42F7D0049B00
:103410009C446245C8D2AAE703998C449C44F8E7CF
:1034200058460DF22C4DBDE8F08F4FF0FF340DF1F2
:1034300028092EE7029991E72DE9F04F814689B0DE
:10344000002B7CD08B428B461C466FD81F2B054629
:1034500070D8117890465A4600F048FD8146002801
:1034600064D0012C6BD02A1A02EB0B05AC425DD85C
:10347000214607AA4046FFF789FE07998346024680
:103480004144404600F07CFD002862D18446079B01
:103490000BF1FF3A0393E31A049308EB0A032A1B88
:1034A0000593CBF1010301920293DC45634638BFDB
:1034B0005B469C4213D91A1819F8025018F8036099
:1034C0004A44AE4208EB030106D03CE011F8016F1C
:1034D00012F8015FAE4236D101339C42F6D8E34583
:1034E000514640F28480059E00EB0A0219F8023032
:1034F00035784A449D427AD1334608EB0C0E06E0FB
:1035000013F8017D12F8016DB74204D129467345C5
:1035100001F1FF35F4D10CF1010C8C4559D8039B16
:10352000DDF810C01844019B8342BED2002009B0D0
:10353000BDE8F08FFFF786FE09B0BDE8F08F484682
:1035400009B0BDE8F08F029A4FF0000C1044184407
:10355000E9E7CBEB04035B4538BF5B4601330BF176
:10356000FF3C02930793CBF101032A1B08EB0C0AE3
:10357000002008EB0B0E01935C4514D900EB0B0106
:1035800019F801309EF8005049449D4225D17546F6
:103590005B4605E015F8017F11F8016FB7421DD1B8
:1035A00001339C42F6D8BCF1FF3F12D000EB0C0176
:1035B00019F801309AF8005049449D4214D15346FD
:1035C00005E013F8016D11F8015DAE420CD14345E1
:1035D000F7D1484409B0BDE8F08F5B460199084433
:1035E00018448242C8D2A1E7029B1844F9E7594621
:1035F00091E700BF70B4840746D0541E002A41D022
:10360000CDB2034602E0621EE4B3144603F8015B48
:103610009A07F8D1032C2ED9CDB245EA05250F2CF7
:1036200045EA054519D9264603F11002103E0F2E32
:1036300042F8105C42F80C5C42F8085C42F8045C0A
:1036400002F11002F2D8A4F1100222F00F0204F0ED
:103650000F041032032C13440DD91E462246043A9F
:10366000032A46F8045BFAD8221F22F00302043230
:10367000134404F003042CB1C9B21C4403F8011B29
:10368000A342FBD170BC704714460346C2E700BF9B
:10369000C9B270B4002933D0850710D00378002B4D
:1036A00059D0994218BF431C06D127E013F8012BCB
:1036B000002A4DD0914221D09A071846F6D141EA0E
:1036C0000126036846EA064601E050F8043F83EA13
:1036D0000605A5F10134A3F1013224EA050422EA2A
:1036E0000303234313F0803FEFD0037823B932E084
:1036F00010F8013F002B2ED09942F9D170BC7047D1
:1037000084070BD00378002BF8D0431C03E0027829
:103710000133002AF2D099071846F8D10268A2F1C5
:10372000013323EA020313F0803F08D150F8042F3D
:10373000A2F1013323EA020313F0803FF6D00378AD
:10374000002BDBD010F8013F002BFBD170BC704781
:10375000104670BC7047184670BC704780EA010282
:10376000844612F0030F4FD111F0030F32D14DF800
:10377000044D11F0040F51F8043B0BD0A3F10132BA
:103780009A4312F0803F04BF4CF8043B51F8043BCD
:1037900016D100BF51F8044BA3F101329A4312F045
:1037A000803FA4F101320BD14CF8043BA24312F04C
:1037B000803F04BF51F8043B4CF8044BEAD0234649
:1037C0000CF8013B13F0FF0F4FEA3323F8D15DF8FB
:1037D000044B704711F0010F06D011F8012B0CF8C3
:1037E000012B002A08BF704711F0020FBFD031F83B
:1037F000022B12F0FF0F16BF2CF8022B8CF80020C2
:1038000012F47F4FB3D1704711F8012B0CF8012B44
:10381000002AF9D1704700BF20F0030110F0030027
:10382000C0F1000051F8043B00F1040C4FEACC0C4D
:103830006FF000021CBF22FA0CF213434FF0010C90
:103840004CEA0C2C4CEA0C4CA3EB0C0222EA0302CF
:1038500012EACC1204BF51F8043B0430F4D0C2F198
:10386000000102EA0102B2FA82F2C2F11F0200EB89
:10387000D20070472DE9F0414FF0010E744600254B
:103880004FF0FF3663198B4200EB06070DD23F5D08
:1038900010F803C0BC452DD21D460124C6EB030E13
:1038A00063198B4200EB0607F1D34FF00108444641
:1038B000C2F800E000254FF0FF376319994200EB92
:1038C000070E0ED91EF804E010F803C0F44518D90D
:1038D0001D460124C7EB03086319994200EB070E4C
:1038E000F0D80137701C874224BF3846C2F80080E8
:1038F000BDE8F0810CD04FF0010E2E4674467544A1
:10390000C0E709D04FF001082F4644464544D4E7AC
:10391000744505D00134B5E7444504D00134CCE703
:103920001D460124AEE71D460124C6E72DE9F04FF0
:10393000ADF2144D164605468B461046194603AAAD
:103940001C46FFF797FF804603AB0DF20C4243F88D
:10395000044F9342FBD15CB13246631E371904A871
:1039600012F8011BBA4240F8213003F1FF33F7D1BE
:10397000039930463144424600F002FB00286DD1E5
:1039800008F1FF330093F3188246019323468146E2
:10399000544658469A4609EB0A073A1A0021284429
:1039A00000F0A4FA002840F0AC80002F00F0A980BD
:1039B000EB1913F8012C04AB53F822304BB124B1AE
:1039C000039A934201D2C2EB0A0399440024384679
:1039D000E1E74445234638BF43460AF1FF3E7345BD
:1039E00013D203EB0902A85C16F803C02A448445ED
:1039F00006EB030106D02DE011F801CF12F8010FFC
:103A0000844527D101337345F6D34445009980F0AE
:103A10008780009B019809EB0302AB5C00782A4485
:103A200098427DD1019B06EB040B06E013F801EDF3
:103A300012F8010D864504D161465B4501F1FF3C5A
:103A4000F4D101348C4256D8039C3846A144C4EBCF
:103A50000A04A0E7C8F101029144B6E7C8EB0403E9
:103A6000434538BF434608F1FF3701330393F31949
:103A70005846A246C34698464FF0000909EB0A048F
:103A8000221A0021284400F031FAD0BBCCB32B1904
:103A900013F8012C04AB53F82230C3BB0AF1FF30FA
:103AA000834514D209EB0B02AB5C16F80BE02A44F9
:103AB0009E4506EB0B015B4606D02BE011F801CFCB
:103AC00012F801EFF44525D101338342F6D37B1C74
:103AD00011D009EB0702AB5C98F800102A44994218
:103AE00014D1434605E013F8010D12F8011D884278
:103AF0000CD1B342F7D105EB09000DF2144DBDE82E
:103B0000F08F00200DF2144DBDE8F08F039B994417
:103B10002046B3E7CBF10102914499442046ADE73A
:103B200041468EE70278002A00F003812DE9F04F2C
:103B300091F8008085B04346B8F1000F15D0844657
:103B400001F1010E012402E01EF8013B63B19A422B
:103B500014BF002404F001041CF8012F7746002A4A
:103B6000F2D19EF800301BB934B105B0BDE8F08F3A
:103B7000002005B0BDE8F08F0E46054641460130F5
:103B8000FFF786FDBC1B07460028F1D0012CECD0C6
:103B90002819874294BFC7EB000B4FF0010B1F2C75
:103BA00008D93846594632462346FFF7BFFE05B0CE
:103BB000BDE8F08F214603AA3046FFF75BFE03996C
:103BC000804602463144304600F0DAF9002858D1E8
:103BD00081460546B246584608F1FF330193F31873
:103BE00000932E19321A0021384400F07FF9002882
:103BF000BED1002EBCD0C1454B4638BF43469C4287
:103C000012D95A19B95C1AF803003A4488420AEBEF
:103C1000030E06D02DE01EF8010F12F8011F884296
:103C200027D101339C42F6D8019BC845194640F282
:103C300083800098EA18BB5C00783A4498427BD1B4
:103C4000009B0AEB090B06E013F801CD12F801ED19
:103C5000F44504D101465B4501F1FF30F4D109F18F
:103C6000010989456AD8039B30461D44C3EB04090A
:103C7000B7E7C8F1010215441D444FF00009304672
:103C8000AFE7C8EB0403434508F1FF3238BF4346B2
:103C900006EB02095846CB469146013303934FF099
:103CA000000A0AEB04052A1A0021384400F01EF924
:103CB00000287FF45DAF002D3FF45AAF444514D97E
:103CC0000AEB0802BB5C16F808003A44984206EB7F
:103CD0000801434606D022E011F801EF12F8010F67
:103CE00086451CD101339C42F6D8B9F1FF3F11D073
:103CF0000AEB0902BB5C9BF800103A44994214D1CC
:103D00005B4605E013F8010D12F8011D88420CD145
:103D1000B342F7D107EB0A0005B0BDE8F08FC8F158
:103D2000010292449A442846BBE7039B28469A44E2
:103D3000B7E70B7823B97047414690E7781914E745
:103D400000207047024A012312685C3200F002B87A
:103D500070040020F0B420B307460D4617F8016B3D
:103D600001E0A64216D015F8014B002CF9D1EEB1B6
:103D70003E460C4616F8015B00E073B114F8013BB7
:103D8000AB42FAD15DB100233B7016600646304667
:103D9000F0BC704763B13846DEE73746E8E72E46A9
:103DA000F3E710680028D7D10646F0E71660EEE783
:103DB000176006460370EAE72DE9F04F444C83464E
:103DC0000E46D4F800E000E02646344614F8015BC5
:103DD0000EEB0500407800F0080000F0FF08002816
:103DE000F2D12D2D4BD02B2D04BF7578B41C1BB1F7
:103DF000102B60D09A4603E0302D54D00A239A4607
:103E0000B8F1000F14BF4FF000406FF00040B0FB5E
:103E1000FAF90027BC460AFB19000CE0303DAB4222
:103E200019DD7E1C05D0CC4524D821D00AFB0C5CC2
:103E3000012714F8015B0EEB0506767816F0040FE7
:103E4000ECD116F0030606D0012E0CBF37265726FC
:103E5000AD1BAB42E5DC7B1C16D0C8F100008CEA40
:103E6000000040444AB107B1611E1160BDE8F08F07
:103E70008542DBDD4FF0FF37DBE7BDE8F08FB41C98
:103E800075784FF00108B2E7B8F1000F4FF0220348
:103E900014BF4FF000406FF00040CBF80030002A14
:103EA000E2D1BDE8F08F237803F0DF03582B09D06F
:103EB00008239A46A4E7302D9CD1207800F0DF003B
:103EC000582897D14FF0100A65785346023497E787
:103ED0000405002030B40D46034C134601462A4623
:103EE000206830BCFFF768BF70040020830770B4FF
:103EF000C9B240D0541E002A3FD003788B4218BF6D
:103F0000431C05D11CE0ECB10278013C8A4217D079
:103F100013F0030F184603F10103F4D1032C14D856
:103F200084B103788B420BD00519431C02E0027860
:103F30008A4205D0AB42184603F10103F7D10020B5
:103F400070BC7047204670BC7047024641EA0126AB
:103F500046EA0646136810467340A3F1013525EA88
:103F6000030313F0803F02F10402D9D1043C032C77
:103F70001046EFD8D4E71446D0E71046E0E700BF7C
:103F8000032A70B426D940EA01039B0711D00478B4
:103F90000D78AC4222D10244431C05E013F8014BDA
:103FA00011F8015FAC4219D19342F7D1002070BCE7
:103FB00070470C4603461E6825681846AE422146E7
:103FC00003F1040304F1040404D1043A032A18465B
:103FD0002146F0D8002ADAD11046E8E7601B70BC11
:103FE000704700BF4552524F5200000047455400F1
:103FF000504F53540000000050555400436F6E74EE
:10400000656E742D547970653A200000436F6E74AC
:10401000656E742D4C656E6774683A200000000070
:104020004163636570743A2000000000416363657A
:1040300070742D456E636F64696E673A20000000EE
:10404000486F73743A200000557365722D4167659F
:104050006E743A2000000000485454502F312E3125
:1040600020323030204F4B0D0A436F6E74656E74F2
:104070002D547970653A206170706C696361746960
:104080006F6E2F6A736F6E0D0A436F6E6E65637489
:10409000696F6E3A20636C6F73650D0A0000000053
:1040A0007B224944223A2264696D3031222C22530A
:1040B0007461747573223A7B2243757272656E74F3
:1040C00049505F57414E223A22302E302E302E304A
:1040D000222C2263757272656E7469705F6C616EFA
:1040E000223A223139322E3136382E342E31222CDA
:1040F0002273656C665F636865636B5F7265737579
:104100006C74223A224F4B227D7D2000000000007B
:104110007B224944223A222573222C224E6F646569
:10412000537461747573223A7B2270756D70537489
:10413000617465223A222564222C2266616E5374D2
:10414000617465223A222564222C2263757272659D
:104150006E7454656D70223A222564222C22637598
:104160007272656E7448756D6964223A2225642204
:104170002C7D2C2247656E6572616C537461747579
:1041800073223A7B2243757272656E7449505F5791
:10419000414E223A25732C2263757272656E744902
:1041A000505F4C414E223A25732C2273656C665F3A
:1041B000636865636B5F726573756C74223A224F36
:1041C0004B227D7D200000005357414D505F5245EA
:1041D0004C4159007B224944223A222573222C2249
:1041E000537461747573223A7B222573223A222517
:1041F00073222C2243757272656E7449505F574169
:104200004E223A222573222C2263757272656E74D7
:1042100049505F4C414E223A222573222C2273656D
:104220006C665F636865636B5F726573756C74223F
:104230003A224F4B227D7D200000000020203C6868
:10424000746D6C3E3C686561643E3C6D65746120D4
:10425000636861727365743D225554462D38222F70
:104260003E3C6D657461206E616D653D22766965C9
:1042700077706F72742220636F6E74656E743D2266
:1042800077696474683D6465766963652D776964F0
:1042900074682C20696E697469616C2D7363616C3C
:1042A000653D312E30223E3C7469746C653E446934
:1042B0006D6D696E67204D6F64756C6520436F6E20
:1042C00074726F6C20506167653C2F7469746C6503
:1042D0003E3C2F686561643E3C666F726D20616391
:1042E00074696F6E3D2264696D6D696E675F666F9C
:1042F000726D2E617370223E44696D6D696E672028
:1043000056616C75653A203C696E707574207479DD
:1043100070653D227465787422206E616D653D2262
:1043200064696D76616C7565223E3C62723E3C69E3
:104330006E70757420747970653D227375626D6955
:1043400074222076616C75653D225375626D6974C7
:10435000223E3C2F666F726D3E3C2F68746D6C3E42
:10436000000000002564000041542B434950534590
:104370004E443D25642C25640D00000025732573F3
:1043800025640D0A0D0A25730000000041542B43DB
:10439000495053454E443D25642C25640D0A257330
:1043A0000000000070756D700000000066616E0016
:1043B0004154000041542B434950535441545553E8
:1043C0000000000041542B43574C415000000000B6
:1043D00041542B474D52000041542B43574D4F44FD
:1043E000453F000041542B43574D4F44453D33005A
:1043F00041542B43574A41503D224E6F6E79612202
:104400002C22706F727363686539313122000000AD
:1044100041542B43574A41503F00000041542B5216
:104420005354000041542B4349504D55583D3100E1
:1044300041542B43494F424155443D31313532308F
:104440003000000041542B434950534552564552C9
:104450003D312C383000000041542B434946535223
:104460000000000041542B43495053544152543DE5
:104470003F00000041542B43574C494600000000C8
:1044800041542B43575141500000000041542B43ED
:10449000575341503D00000041544530000000009A
:1044A00072656164790000004C696E6B0000000069
:1044B000556E6C696E6B00004F4B000053454E44C7
:1044C000204F4B002B495044000000004552524FF2
:1044D0005200000077726F6E672073796E74617896
:1044E000000000006275737920702E2E2E000000EF
:1044F0006275737920696E65742E2E2E000000009F
:104500004F4B0D0A0000000041542B4349505345C6
:104510004E44000053454E44204F4B0D0A0000000E
:1045200041542B434950434C4F53453D25640000B3
:104530002C0000003A000000200000000D0A0000DE
:104540007B0000007D0000002B43494653523A4156
:10455000504950000D0000003F0000000000000026
:104560003D0000002600000041542B43574A4150B3
:104570003D222573222C22257322000041542B4317
:10458000575341503D22222C22222C22222C22221F
:1045900000000000002020202020202020202828AB
:1045A00028282820202020202020202020202020F3
:1045B0002020202020881010101010101010101033
:1045C0001010101010040404040404040404041063
:1045D00010101010101041414141414101010101F1
:1045E00001010101010101010101010101010101BB
:1045F00010101010101042424242424202020202C7
:10460000020202020202020202020202020202028A
:10461000101010102000000000000000000000003A
:10462000000000000000000000000000000000008A
:10463000000000000000000000000000000000007A
:10464000000000000000000000000000000000006A
:10465000000000000000000000000000000000005A
:10466000000000000000000000000000000000004A
:10467000000000000000000000000000000000003A
:10468000000000000000000000000000000000002A
:08469000000000000000000022
:1046980000A24A0400000000000000000102030418
:1046A80006070809E43F0008EC3F0008F03F00084F
:1046B800F83F0008FC3F00080C40000820400008B4
:1046C8002C400008404000084840000858400008B6
:1046D800A0400008000000000000000000000000EA
:1046E80001000000000000000000000000000000C1
:1046F80000000000000000000000000000000000B2
:1047080000000000000000000000000000000000A1
:104718000000000000000000000000000000000091
:104728000000000000000000000000000000000081
:104B0800480000200000000000000000010203042B
:104B18000102030406070809020406084800000009
:104B2800FFFF0000B0430008B4430008C443000876
:104B3800D0430008D8430008E4430008F0430008C5
:104B4800104400081C4400082444000830440008AD
:104B580044440008584400086444000874440008A9
:104B6800804400088C44000898440008A0440008C9
:104B7800A8440008B0440008B8440008BC44000831
:104B8800C4440008CC440008D4440008E4440008A5
:084B9800F044000894450008F8
:0400000508000000EF
:00000001FF
